:020000040800F2
:100000003024002001010008413000083D2900088B
:100010003D3000089D010008DD430008000000009D
:10002000000000000000000000000000B13E0008D9
:10003000B901000800000000613E0008D93E000838
:100040001B0100081B0100081B0100081B01000820
:100050001B0100081B0100081B0100081B01000810
:100060001B0100081B0100081B0100081B01000800
:100070001B0100081B0100081B0100081B010008F0
:10008000A1010008AD0100081B0100081B010008C8
:100090001B0100081B0100081B0100081B010008D0
:1000A0001B0100081B0100081B0100081B010008C0
:1000B0000D3F00081B0100081B0100081B01000880
:1000C0001B0100081B0100081B0100081B010008A0
:1000D0001B0100081B010008D14300081B01000898
:1000E0001B0100081B0100081B010008DFF80CD0F1
:1000F00000F03CF80048004701440008302400208C
:100100000648804706480047FEE7FEE7FEE7FEE7B1
:10011000FEE7FEE7FEE7FEE7FEE7FEE7093F000831
:10012000ED00000840EA01039B0703D009E008C97D
:10013000121F08C0042AFAD203E011F8013B00F8AC
:10014000013B521EF9D27047D2B201E000F8012BF8
:10015000491EFBD270470022F6E710B513460A4647
:1001600004461946FFF7F0FF204610BD1CB50948AC
:100170000090094801900546009C06E0E06840F0C8
:10018000010394E8070098471034AC42F6D3FFF718
:10019000B1FF0000208D0008408D0008FEE7000040
:1001A00040F6A040C2F2000000F060B940F6E44022
:1001B000C2F2000000F05AB970470000EFF310805F
:1001C00072B600BFFEE7000040F24005C2F2000533
:1001D00040F6546448F6F5490126C2F20004C0F620
:1001E000000905F1100840F6B83B01E00020287036
:1001F0006E700220687000F0A5FB07462046494655
:100200000C2202F03BFB20464146142201F0DCFCAC
:10021000287850B900F096FBC01B584508D80A2032
:1002200004F03AF928780028F4D00128E1D103E05D
:1002300000202870DDE700BF2F464FF4407027F8FC
:10024000100B00F07FFB48F6E14182462046C0F6E5
:1002500000010D2202F012FB20463946142201F063
:10026000B3FC287860B900BF00F06CFBA0EB0A007B
:10027000584557D80A2004F00FF928780028F3D001
:10028000012851D12E464FF4806026F8100B00F063
:1002900059FB48F6095107462046C0F600011122D5
:1002A00002F0ECFA204631461422012601F08CFCC3
:1002B000287850B900F046FBC01B584532D80A20B8
:1002C00004F0EAF828780028F4D001282CD12E4632
:1002D0004FF4A06026F8100B24A006F083F800F07D
:1002E00031FB48F6CD4107462046C0F600011022FA
:1002F00002F0C4FA204631461422012601F064FCC3
:10030000287858B900F01EFBB8427FF46FAF0A207E
:1003100004F0C2F828780028F4D000BF01287FF448
:1003200067AF63E7002028700620687000F00AFBC2
:1003300048F6B94107462046C0F60001102202F0F7
:100340009DFA20464146142201F03EFC2878002800
:10035000E4D100BF00F0F6FAB8427FF447AF0A20BC
:1003600004F09AF828780028F4D0D7E76F6B0000E3
:10037000014690F82100022816D10868D1E90FC380
:10038000026822F00E020260026822F0010202609E
:10039000012000FA03F2CCF8042081F821000020AB
:1003A000002281F820207047042088630120002269
:1003B00081F820207047000090F82110022923D1F5
:1003C0000268116821F00E0111602F211368C4F238
:1003D00002018A4240F20401C4F2020123F0010347
:1003E000136015DD3023C4F202039A421CD044236B
:1003F000C4F202039A421BD05823C4F202039A4269
:100400001CD14FF4803321E0042181630120704727
:100410000823C4F202039A420ED01C23C4F2020342
:100420009A420BD1102311E04FF480730EE000BF0D
:100430004FF480530AE000BF012307E001F1680C8C
:100440004FF08073624508BF4FF480130B600121A9
:1004500080F82110426B002180F8201022B180B575
:1004600090470021BDE880400846704710B5D0E9AC
:100470000FCE0168DCF800300A6823FA0EF35C073F
:100480002AD512F0040427D00A68920603D40A6819
:1004900022F004020A602F22C4F20202914240F2CA
:1004A0000402C4F202025BDD3023C4F2020399426B
:1004B00072D04423C4F20203994273D05823C4F289
:1004C0000203994240F07A804FF480231360C16A9E
:1004D000002940F098806FE09C0727D512F00204B5
:1004E00024D00A68920606D40A6822F00A020A603A
:1004F000012280F821202F22C4F20202914240F210
:100500000402C4F202023BDD3023C4F2020399422A
:1005100060D04423C4F2020399425FD05823C4F24E
:100520000203994260D14FF4003365E01B0743D5C5
:1005300012F0080208BF10BD0A6822F00E020A601D
:10054000012101FA0EF2CCF80420816380F8211019
:10055000016B0022002980F8202054D12CE000BF3C
:100560000823C4F20203994222D01C23C4F20203DE
:10057000994223D140231360C16A002943D11BE073
:100580000823C4F2020399422CD01C23C4F20203B4
:10059000994229D120232FE04FF480631360C16A70
:1005A00089BB09E04FF480431360C16A59BB03E083
:1005B00004231360C16A31BB10BD00BF02F168049F
:1005C0004FF08063A14208BF4FF480031360C16AFB
:1005D000C9B9F1E74FF400730EE000BF4FF40053C8
:1005E0000AE000BF022307E002F168044FF0007345
:1005F000A14208BF4FF400131360816A0022002952
:1006000080F82020D8D0BDE81040084701460028D7
:100610004FF0010008BF70472DE9F0470A684FF618
:10062000F873CBF6FD7302EB030C4CF6CD43CCF61E
:10063000CC43ACFB033C6FF00307002607EA9C07A2
:10064000C4F2020601F10C0AC1E90F670227D1E9E1
:10065000013E9AE83004D1E9069881F821701768C4
:1006600043F6F076B7433B4343EA0E0323432B4361
:1006700043EA0A0343EA090343EA0803136000223A
:100680008A6381F8210081F820200020BDE8F0472E
:100690007047000090F820C0BCF1010F04BF022099
:1006A0007047F0B54FF0010E80F820E090F821C0BF
:1006B000BCF1010F26D14FF0020C80F821C04FF0A1
:1006C000000CC0F838C0D0E900C4C56AC66BDCF8BD
:1006D0000070102C27F00107CCF80070006C0EFAA7
:1006E00000F070600846CCF8043004BF10460A469B
:1006F000CCF80800CCF80C20DCF8000045B140F044
:100700000E000DE0002180F820100220F0BD00BF97
:1007100020F00400CCF80000DCF8000040F00A00F3
:10072000CCF80000DCF8000040F00100CCF800003C
:100730000020F0BD2DE9F04F82B00E68002E00F0D1
:10074000FD8041F20042C4F20102042340F2004E57
:10075000904208BF03234FF6FF7CC4F2010E0093C2
:1007600000240123C1F2100C4FF0000A4FF00009E1
:1007700044E000BF012704F00C030F229A402BEA4B
:10078000020207FA03F34FEA9A051A4346F82520B6
:100790004E6840F20C45F202DEF8082054BF22EA0F
:1007A000080242EA0802C4F20105CEF808202A68CD
:1007B000B30254BF22EA080242EA08022A60B303E5
:1007C000DEF8042054BF22EA080242EA0802F303DA
:1007D000CEF80420DEF800204FF0010354BF22EAD7
:1007E000080242EA0802CEF800200E680AF1010A67
:1007F00036FA0AF204F1040400F0A08003FA0AFBBE
:1008000016EA0B08F1D04E68664511DC122E55D859
:10081000DFE806F0340A44485454545454545454B1
:1008200054545454544C5000D1F80C9046E000BF3E
:100830004FF6FF72C1F2210296420FDC0022C1F294
:10084000110296421AD00022C1F21202964215D02D
:100850000022C1F22102964210D02FE00022C1F204
:10086000220296420AD00022C1F23102964205D0FD
:100870000022C1F23202964220D100BF8A684AB1FA
:10088000012A14BFC0F814B0C0F810B04FF0080926
:1008900014E000BF4FF0040910E000BFCA6802F185
:1008A00008090BE04FF0000908E000BFCA6802F138
:1008B000040903E0CA6802F10C0900BF224606469B
:1008C000B8F5807F24BF203A043637680F2595405D
:1008D00027EA050509FA02F22A433260CA79D206EC
:1008E0007FF583AF41F21803C4F202031A68AEF534
:1008F0007E7642F001021A601A6802F0010201924B
:10090000019A2AF0030256F802B040F60002C4F23F
:100910000102904210D040F60042C4F2010290421F
:100920003FF428AF41F20002C4F20102009F90425E
:1009300008BF02271FE700BF00271CE702B0BDE881
:10094000F08F000041F6EC70C2F2000000687047C2
:10095000002804BF01207047F0B581B0044690F82C
:100960003D0028B9002084F83C00204600F090F9B2
:10097000242084F83D002068016821F00101016015
:10098000016841F400410160016821F40041016007
:1009900000F0A8FB636848F2A16CC0F2010C40F6BD
:1009A0000011C0F23D0163453CBF48F28041C0F2F6
:1009B0001E01884202D2012001B0F0BD4DF68361D4
:1009C000C4F21B31A0FB01122168970CD1F804E09E
:1009D0004FF496762EF03F0545EA92454D607743F9
:1009E00048F638160D6AC0F24106A7FB067625F0D8
:1009F0003F07634538BF960C721C3A430A62CA69C6
:100A000048F2A0664CF6FF77C0F20106B34222EA34
:100A100007020BD801385B00B0FBF3F001306FF335
:100A20001F30042898BF04201BE000BFA7680138CE
:100A300057B119277B43B0FBF3F001306FF31F3040
:100A400070B100F5804007E003EB4303B0FBF3F027
:100A500001306FF31F3018B100F5004001E000BF16
:100A600001201043C8610868D4E9072320F0C000C2
:100A7000104318430860886848F2FF3204F10C07FD
:100A800090438CCF18431043A6698860C86820F053
:100A9000FF0038433043C860086840F00100086038
:100AA00000202021206484F83D10206384F83E005B
:100AB00001B0F0BD2DE9F04383B01E4617468946CC
:100AC0000446FFF73FFF94F83D10202924D1054646
:100AD000206800BF816989071AD5FFF733FF411BE2
:100AE00020681A29F6D381698907F3D500202021CF
:100AF000206384F83D1084F83E00216C41F0200111
:100B0000216484F83C00022003B0BDE8F08300BFFC
:100B100094F83C10012903D1022003B0BDE8F08312
:100B2000012184F83C100168C90703D1016841F034
:100B300001010160016840F2020821F400610160D6
:100B4000212184F83D10102184F83E1000212164F9
:100B500067626685618DC0F201082185A8F10211E6
:100B6000E162E16A0A9E11F5803F18BF01291DD19B
:100B7000016841F48071016020464FF001110022AC
:100B80003346009501F03AFF50B120680068C00577
:100B900044BF4FF400702064012003B0BDE8F0832F
:100BA0002069B0F5804F07D1FE2015E00829DFD07D
:100BB000216B1229DCD0DFE7062000EAD91021687A
:100BC000F030086108F10601204632462B4601F05C
:100BD000FBFF0028E0D1FF20216800EA090008613E
:100BE0002046414632462B4601F0EEFF0028D3D185
:100BF0000020029020684169029180690290029869
:100C000006E000BF204631462A4601F099FE18BB97
:100C1000208D68B3204631462A4602F041F8D8B903
:100C2000606A2168024612F8013B0B616262628DC4
:100C3000013A6285228D531E23854F697F07E1D5D6
:100C40001B04DFD0437802300B616062608D013895
:100C50006085901E2085D5E7206C04289CD12068F3
:100C6000016841F400710160012003B0BDE8F08328
:100C70002068016841F400710160202084F83D0083
:100C8000002084F83E0084F83C0003B0BDE8F08307
:100C900010B586B045F200410068C4F200010022A0
:100CA0008842049202D006B010BD00BF41F2180481
:100CB000C4F20204206840F008002060206800F0C0
:100CC000080001900198C020029012200390032098
:100CD000059001F5384002A9FFF72CFD606840F44B
:100CE00000106060606800F400100190019806B088
:100CF00010BD000040F2040041F6EC71C2F20000A9
:100D0000C2F2000100780A681044086070470000D1
:100D100080B542F20000C4F20200016841F0100107
:100D20000160032000F0CAF80F2000F005F800F081
:100D30005FF8002080BD0000B0B586B041F21C0114
:100D4000C4F202010A68044642F001020A6009681E
:100D500001A801F0010101910199694600F0A0F993
:100D6000049D002D18BF012500F0BCF94DF68361EC
:100D7000A840C4F21B31A0FB01014FF0FF3000EB93
:100D8000914140F67C50C2F200004FF0804240F2A8
:100D9000E7330025C0E90021C0E902530561856100
:100DA00000F00CFC054618B1284606B0B0BD00BFE7
:100DB00040F67C50C2F2000000F078FC05460028A6
:100DC000F2D11C2000F03CF80F2C0DD81C2021463D
:100DD0000022002500F046F840F20800C2F20000B0
:100DE0000460284606B0B0BD0125284606B0B0BD57
:100DF00080B582B041F21800C4F2020001680022FE
:100E000041F001010160016801F0010101910199C6
:100E1000416841F08051416040680F2100F08050EE
:100E2000009000986FF0010000F01CF80420C4F25C
:100E300001000168022262F31A61016002B080BD04
:100E4000002848BF704700F01F01012202FA01F19B
:100E50001C2202EAD0004EF20012CEF200028150B3
:100E60007047000010B54EF60C5CCEF2000CDCF8BA
:100E70000030C3F3022E8EF00704042C28BF042494
:100E8000BEF103034FF0FF3E0EFA04F438BF002317
:100E9000A14399400EFA03F39A43114300F00F0265
:100EA00000F160430901043A03F5644362440028F9
:100EB00048BF02F10C03197010BD00004EF60C5132
:100EC000CEF200010A684FF6FF031A4060F30A22CF
:100ED00042F0806040F0FD7008607047002804BF59
:100EE000012070472DE9F04381B042F20008C4F2BE
:100EF00002080446D8F800000D4600F007008842BA
:100F00000CD2D8F8000020F007002843C8F80000F1
:100F1000D8F8000000F00700A8426CD1206841F228
:100F200004098107C4F2020917D5410705D5D9F88C
:100F3000001041F4E061C9F80010010705D5D9F8A7
:100F4000001041F46051C9F80010D9F80010A268EF
:100F500021F0F0011143C9F80010C00742D1D8F8C0
:100F6000000000F00700A8420CD9D8F8000020F0DB
:100F700007002843C8F80000D8F8000000F0070078
:100F8000A84238D12068410707D5D9F80010E26897
:100F900021F4E0611143C9F80010000708D5D9F821
:100FA0000000216920F4605040EAC100C9F8000047
:100FB000D9F8002002F00C00082841F20020C0F20D
:100FC0007A0051D148F67243C2F38341C0F6000360
:100FD000595CD2033CD440F60010C0F23D004843B7
:100FE00042E000BF606802280AD001282AD159F8DF
:100FF000041C890308D4012001B0BDE8F08300BFC0
:1010000059F8041C8901F6D5D9F8001021F0030124
:101010000843C9F80000FFF795FC064641F28837FF
:10102000D9F80000616800F00C00B0EB810F96D099
:10103000FFF788FC801BB842F2D9032001B0BDE85D
:10104000F08300BF59F8041C8907D4D5DCE700BF42
:10105000D9F8002048F67043C2F34042C0F60003BE
:101060009A5C4843B0FBF2F0D9F8001046F208420F
:10107000C1F30311C0F60002515C40F20C0220FAE9
:1010800001F140F20800C2F200000068C2F2000262
:101090001160FFF751FE002001B0BDE8F0830000B1
:1010A0000F22026041F20402C4F20202136803F04C
:1010B00003034360136803F0F0038360136803F4D1
:1010C000E063C36012684FF4E06303EAD202026196
:1010D00042F20000C4F20200006800F0070008605D
:1010E0007047000040F20C0041F20401C2F200001F
:1010F000C4F202010068096846F21842C1F30221F5
:10110000C0F60002515CC8407047000040F20C007D
:1011100041F20401C2F20000C4F202010068096851
:1011200046F21842C1F3C221C0F60002515CC84029
:1011300070470000002804BF012070472DE9F041EE
:1011400082B00446007841F20006C007C4F20206ED
:101150000CD0706800F00C00042840F081803068EA
:10116000800303D56068002800F04E812078800756
:101170001BD5706810F00C0F09D0706800F00C00DF
:10118000082840F08B807068C00300F187803068C9
:10119000800703D52069012840F0368130686169F5
:1011A00020F0F80040EAC10030602078000713D436
:1011B000207840072CD4E569002D00F0208170686C
:1011C00000F00C00082840F0AF80012D40F00C81A9
:1011D000012002B0BDE8F081A069002800F08C80F9
:1011E0000020C4F242200121C0F88014FFF7AAFBBE
:1011F000054600BF706A800700F1BA80FFF7A2FBC6
:10120000401B0228F6D9032002B0BDE8F08100BFE0
:10121000F0695FEAC00808D4F06940F08050F061DE
:10122000F06900F080500090009847F20007C4F287
:1012300000073868C0054DD4386840F480703860C5
:10124000FFF780FB054600BF3868C00542D4FFF7B2
:1012500079FB401B6428F7D9032002B0BDE8F08178
:10126000706800F00C00082803D17068C0033FF5D7
:1012700076AF6068002800F00981B0F5A02F00F07B
:101280001D81B0F5803F00F01D81306820F4803072
:101290003060306820F4802017E100BF206900280A
:1012A00040F20000C4F2422000F08C800121016075
:1012B000FFF748FB054600BF306880073FF56EAF7B
:1012C000FFF740FB401B0228F6D9032002B0BDE81F
:1012D000F08100BFE068002800F09A80052800F047
:1012E000B180012800F0B280306A20F00100306245
:1012F000306A20F00400ACE00020C4F2422000215B
:10130000C0F88014FFF71EFB054600BF706A800717
:101310007FF54EAFFFF716FB401B0228F6D90320DE
:1013200002B0BDE8F08100BF0027C4F242270020D0
:101330003866FFF707FB022D05460DD130688001A6
:1013400040F1D680FFF7FEFA401B02284FF0030061
:10135000F4D902B0BDE8F081306880014FD5FFF7C5
:10136000F1FA401B02284FF00300F5D9F1E700BF66
:1013700040F20C00C2F20000006844F6D351C1F202
:101380006201A0FB0101480A019000BF00BF019863
:10139000411E002801913FF40BAF00BF0198411E90
:1013A000002801913FF404AF00BF0198411E0028BE
:1013B00001913FF4FDAE00BF0198411E002801914C
:1013C000E4D1F5E600210160FFF7BCFA054600BF55
:1013D000306880077FF5E9AEFFF7B4FA401B0228BA
:1013E0004FF00300F4D9B4E77068216A00F480324A
:1013F0008A4209D1616A00F47010884204D1002049
:1014000002B0BDE8F08100BF012002B0BDE8F0816C
:10141000306A20F001003062306A20F0040030624F
:10142000FFF790FA054641F2883700BF306A80071F
:1014300022D5FFF787FA401BB8424FF00300F5D9D9
:1014400087E700BF306A40F004003062306A40F045
:1014500001003062FFF776FA054641F2883700BF97
:10146000306A800708D4FFF76DFA401BB842F7D9FD
:10147000032002B0BDE8F081B8F1000F3FF59BAE4C
:10148000F06920F08050F06195E600BF306820F4EC
:1014900080303060306820F480203060FFF752FAEE
:1014A000054600BF306880037FF560AEFFF74AFA5B
:1014B000401B64284FF00300F4D94AE7306840F439
:1014C00080203060306840F480303060FFF73AFAB6
:1014D000054600BF306880033FF548AEFFF732FA9B
:1014E000401B6428F6D9032002B0BDE8F08100BF9C
:1014F000206AB0F5803F05D17168A26821F40031FF
:10150000114371607168626A21F4741111430843D8
:10151000706001203866FFF715FA044630688001D4
:101520003FF56DAFFFF70EFA001B02284FF00300E6
:10153000F4D90EE7704700007047000090F83C2097
:10154000012A4FF0020236D010B580F83D20026823
:10155000D2F804E0D2F808C00C682EF070032343E0
:1015600040F2FF74C4F20004A24253600ADCB2F1FC
:10157000804F13D040F20043C4F200039A420DD0D2
:1015800011E000BF42F60043C4F201039A4205D0C5
:1015900040F60003C4F200039A4204D149682CF0DB
:1015A0008003194391600121002280F83D1080F8EA
:1015B0003C20BDE81040104670470000002804BFE2
:1015C0000120704710B5044690F83D0028B900206E
:1015D00084F83C00204600F067F8022084F83D00C3
:1015E000206840F2FF730268C4F2000342F6004C28
:1015F0009842C4F2010C15DCB0F1804F1AD040F2D1
:101600000041C4F20001884214D0984218DCB0F1C5
:10161000804F1DD040F20041C4F20001884217D033
:101620001AE000BF604505D040F60001C4F2000199
:101630008842EAD1A16822F070020A439842E6DDAE
:10164000604505D040F60001C4F20001884203D194
:10165000216922F440720A43A36922F08001D4F880
:1016600004E0E268194360450160C262C0F828E006
:1016700002D16169CCF8301001214161002084F869
:10168000461084F83E1084F83F1084F8401084F827
:10169000411084F8421084F8431084F8441084F810
:1016A000451084F83D1010BD7047000090F83D10C3
:1016B00001291CBF01207047022180F83D100068FD
:1016C00040F2FF72C168C4F20002904241F0010191
:1016D000C16009DCB0F1804F12D040F20041C4F289
:1016E000000188420CD012E042F60041C4F2010130
:1016F000884205D040F60001C4F20001884206D1BC
:10170000816801F00701062904BF002070470168C5
:1017100041F00101016000207047000070470000A7
:1017200010B5016804460869800744BFC8685FEACD
:10173000807039D40869400744BFC8685FEA4070C8
:101740003ED40869000744BFC8685FEA007045D40A
:101750000869C00644BFC8685FEAC0604AD4086927
:10176000C0071CBFC8685FEAC07051D10869000695
:1017700044BFC8685FEA006052D40869400644BFAD
:10178000C8685FEA406053D40869800646BFC868ED
:101790005FEA806010BD6FF0200220460A61BDE85C
:1017A0001040FFF7C9BE00BF6FF0020008610120C2
:1017B00020778869800743D02046FFF7AFFF45E0D8
:1017C0006FF00400086102202077886910F4407FE0
:1017D00040D02046FFF7A2FF42E000BF6FF00800B4
:1017E000086104202077C86980073DD02046FFF7B4
:1017F00095FF3FE06FF01000086108202077C8696E
:1018000010F4407F3AD02046FFF788FF3CE000BF4D
:101810006FF001000861204600F0CCF92168A5E7CF
:101820006FF0800008612046FFF784FE2168A4E77E
:101830006FF040000861204600F0C4F92168A3E77A
:10184000204600F025F8204600F0B2F9216800207B
:1018500020776FE7204600F01BF8204600F0A8F93B
:101860002168002020776CE7204600F011F8204620
:1018700000F09EF921680020207769E7204600F0FB
:1018800007F8204600F094F921680020207766E7E9
:101890007047000090F83C30012B04BF02207047D5
:1018A0004FEAB202032A3DD82DE9F043DFE802F007
:1018B00002407CB6036842F600461D6A1A6AC4F20A
:1018C000010622F001021A621A465C6852F818CF2B
:1018D000B3428E68D1F800E025F0020545EA06051E
:1018E0000CD1CE68D1E9057824F4407425F00C05BC
:1018F00026F004063C43354344EA08042CF0730701
:1019000047EA0E075C609F614F6809695F631D626B
:101910009F6947F008079F619F6927F004079F614F
:10192000ACE000BF0121002280F83C20084670474F
:10193000036842F600461D6A1A6AC4F2010622F0E4
:1019400010021A621A46D3F804C052F8184FB34274
:101950008E68D1F800E025F0200545EA06150FD184
:10196000CE68D1E905986FF0400725F0C00507EA79
:10197000061635432CF4406748EA090647EA860C08
:1019800024F4E64444EA0E27C3F804C09F614F687C
:1019900009699F631D629F6947F400679F619F69A2
:1019A00027F480679F6168E0036842F600461D6A7D
:1019B0001A6AC4F2010622F480721A621A46D3F837
:1019C00004C052F81CEFB3428E680C6825F4007511
:1019D00045EA06250FD1CE68D1E90598360240F2D6
:1019E000FF4725F44065BE4335432CF4405748EA91
:1019F000090647EA061C2EF073072743C3F804C004
:101A0000DF614F680969DF631D62DF6947F008071E
:101A1000DF61DF6927F00407DF612FE0036842F62A
:101A20000047D3F820C01A6AC4F2010722F480529A
:101A30001A621A465C6852F81C5FD1F800E08E68A2
:101A4000BB4204D14F6924F4804444EA87142CF447
:101A5000005747EA063725F4E64646EA0E265C605C
:101A6000DE614E6809691E641F62DF6947F4006722
:101A7000DF61DF6927F48067DF61090213681943BA
:101A800011600021BDE8F043002280F83C200846A8
:101A900070470000002804BF0120704710B50446BD
:101AA00090F83D0028B9002084F83C00204600F062
:101AB00067F8022084F83D00206840F2FF73026856
:101AC000C4F2000342F6004C9842C4F2010C15DC4B
:101AD000B0F1804F1AD040F20041C4F200018842B8
:101AE00014D0984218DCB0F1804F1DD040F2004174
:101AF000C4F20001884217D01AE000BF604505D04B
:101B000040F60001C4F200018842EAD1A16822F047
:101B100070020A439842E6DD604505D040F60001B8
:101B2000C4F20001884203D1216922F440720A43C1
:101B3000A36922F08001D4F804E0E268194360450B
:101B40000160C262C0F828E002D16169CCF83010AF
:101B500001214161002084F8461084F83E1084F889
:101B60003F1084F8401084F8411084F8421084F843
:101B7000431084F8441084F8451084F83D1010BDDB
:101B8000006840F20041C4F20001884218BF70476B
:101B900081B041F21C00C4F20200016841F0020170
:101BA0000160006800F002000090009801B07047EA
:101BB000704700000068B0F1804F18BF7047FFF712
:101BC00099B800007047000070B582B0044690F8E4
:101BD000420020280AD113460A4600294FF001008E
:101BE00018BF002B06D102B070BD00BF022002B0AA
:101BF00070BD00BF2063002522206563A262A3851B
:101C0000656484F842002168E06B44F2A10C44F260
:101C1000012E43F62576C0F6000CC0F6000EC0F685
:101C200000060431C0E90ACEC0E90C65FEF732FDBA
:101C30000195206801680191406801900198206930
:101C400030B300BF206850E8030F216840F4807073
:101C500041E80302E2B1206850E8030F216840F434
:101C6000807041E803029AB1206850E8030F2168B0
:101C700040F4807041E8030252B1206850E8030F3D
:101C8000216840F4807041E80302002ADAD100BFE5
:101C9000206850E8050F216840F0010041E8050286
:101CA000BAB3206850E8050F216840F0010041E810
:101CB000050272B3206850E8050F216840F001006A
:101CC00041E805022AB3206850E8050F216840F07A
:101CD000010041E80502002ADAD11AE0206850E844
:101CE000050F216840F0400041E80502DAB12068A4
:101CF00050E8050F216840F0400041E8050292B12C
:101D0000206850E8050F216840F0400041E80502D6
:101D10004AB1206850E8050F216840F0400041E8D2
:101D20000502002ADAD1206B01282FD10020009073
:101D3000206801680091406800900098206850E891
:101D4000030F216840F0100041E80302DAB1206877
:101D500050E8030F216840F0100041E8030292B1FF
:101D6000206850E8030F216840F0100041E80302AA
:101D70004AB1206850E8030F216840F0100041E8A4
:101D80000302002ADAD1002002B070BD012002B0A7
:101D900070BD0000B0B540F65461C2F20001884247
:101DA00040F24000C2F200000AD000F1100140F6FB
:101DB0005460C2F200001422BDE8B040FFF704BF37
:101DC0004178042918D0032901D00229EDD190F8D7
:101DD00016C0C37D027E634490F819E01A44837EE6
:101DE000C17E724419448A42DFD1BEF1000F1CD17A
:101DF00001210170D9E700BF817DC37D027E90F88B
:101E000019C019440A4490F81AE06244C37E72442F
:101E1000017F1A441144427F847FC57F11442A19EF
:101E20009142C2D1BCF1000F02D000210170BCE789
:101E30000121017003EB0E018170B6E770470000CD
:101E4000B0B582B0044600680168C368426901F019
:101E50002F05202D03F0200506D12DB1204602B01C
:101E6000BDE8B04002F034BA5FEA017C1EBF02F068
:101E7000010E03F4907212EB0E0243D1226BCD06D9
:101E800018D5012A16D113F0100213D000210191A8
:101E900001680191416801910199406940063BD474
:101EA000A08DE18DE28D002A18BF884240F0F281BA
:101EB00002B0B0BD0A0640F1E78013F0800200F0E6
:101EC000E38094F841102129F2D1A168B1F5805F37
:101ED00003D12169002900F06382216A4A1C226231
:101EE00009784160E18C01390A04E184E0D1C168DC
:101EF00021F08001C160C16841F04001C16002B0C1
:101F0000B0BD00BFCA0718BF13F4807240F0D08084
:101F10004A0700F1D380D8E0E06B016849688AB2D3
:101F2000002AC5D0A38D9A42C2D2E18580692028BB
:101F300000F09E80206850E8030F216820F4807034
:101F400041E80302DAB1206850E8030F216820F469
:101F5000807041E8030292B1206850E8030F2168C5
:101F600020F4807041E803024AB1206850E8030F72
:101F7000216820F4807041E80302002ADAD1206849
:101F800050E8050F216820F0010041E80502C2B3C6
:101F9000206850E8050F216820F0010041E80502A3
:101FA0007AB3206850E8050F216820F0010041E86D
:101FB000050232B3206850E8050F216820F00100C7
:101FC00041E80502002ADAD11BE000BF206850E892
:101FD000050F216820F0400041E80502DAB12068D1
:101FE00050E8050F216820F0400041E8050292B159
:101FF000206850E8050F216820F0400041E8050204
:102000004AB1206850E8050F216820F0400041E8FF
:102010000502002ADAD1202084F842000020206343
:10202000206850E8030F216820F0100041E8030207
:10203000DAB1206850E8030F216820F0100041E871
:10204000030292B1206850E8030F216820F01000CD
:1020500041E803024AB1206850E8030F216820F0EC
:10206000100041E80302002ADAD1E06BFEF780F9A4
:1020700002206063A08DE18D401A81B2204602B03B
:10208000BDE8B040FFF786BE49067FF511AF13F0FB
:1020900040013FF40DAFC16821F04001C160202133
:1020A000204684F8411002B0BDE8B04000F042BCC8
:1020B000626C42F0010262644A0706D5BEF1000F6D
:1020C00003D0626C42F0020262648A0706D5BEF158
:1020D000000F03D0626C42F004026264BCF1000F96
:1020E00006D55EEA050203D0626C42F00802626423
:1020F000626C002A3FF4DCAE890604D51DB120468F
:1021000002F0E6F820684069616C00F0400001F0E0
:102110000801401800F0B680206850E8030F2168DD
:1021200020F4907041E80302BAB3206850E8030F2E
:10213000216820F4907041E8030272B3206850E8EF
:10214000030F216820F4907041E803022AB320684D
:1021500050E8030F216820F4907041E80302002A40
:10216000DAD11AE0206850E8050F216820F001005C
:1021700041E80502DAB1206850E8050F216820F037
:10218000010041E8050292B1206850E8050F21687E
:1021900020F0010041E805024AB1206850E8050F2F
:1021A000216820F0010041E80502002ADAD1206B05
:1021B000012824D1206850E8030F216820F0100086
:1021C00041E80302DAB1206850E8030F216820F0EB
:1021D000100041E8030292B1206850E8030F216823
:1021E00020F0100041E803024AB1206850E8030FD4
:1021F000216820F0100041E80302002ADAD12020F3
:1022000084F842000020206320684069400640F1C5
:10221000C180206850E8050F216820F0400041E8A7
:102220000502DAB1206850E8050F216820F040006F
:1022300041E8050292B1206850E8050F216820F0BE
:10224000400041E805024AB1206850E8050F2168C6
:1022500020F0400041E80502002ADAD1E06B0028B6
:1022600000F0988043F61971C0F600014163FEF753
:10227000A3F800283FF41CAEE06B416B02B0BDE850
:10228000B04008472046FFF7D9FD0020606402B047
:10229000B0BD00BF401A00BF216851E8031F22688B
:1022A00021F4907142E80313BBB3216851E8031F86
:1022B000226821F4907142E8031373B3216851E856
:1022C000031F226821F4907142E803132BB32168A5
:1022D00051E8031F226821F4907142E80313002B98
:1022E000DAD11AE0216851E8051F226821F00101C6
:1022F00042E80513DBB1216851E8051F226821F08F
:10230000010142E8051393B1216851E8051F2268D5
:1023100021F0010142E805134BB1216851E8051F86
:10232000226821F0010142E80513002BDAD12021B7
:1023300084F8421000212163216851E8031F2268BC
:1023400021F0100142E80313DBB1216851E8031FBB
:10235000226821F0100142E8031393B1216851E88B
:10236000031F226821F0100142E803134BB12168DA
:1023700051E8031F226821F0100142E80313002BEB
:10238000DAD1022281B22046626302B0BDE8B040D9
:10239000FFF700BD204602B0BDE8B040FFF74EBDDC
:1023A000216A31F8022B6FF35F224260216299E5C6
:1023B000002804BF0120704710B5044690F8410082
:1023C00028B9002084F84000204600F063F824205B
:1023D00084F841002068D4E90212C36823F4005352
:1023E000C360036923F440531A430261D4E9042310
:1023F0001143C268194341F20C639A431143C1600F
:102400004169A26921F44071114343F60002C4F20C
:1024100001029042416103D0FEF764FE02E000BF7A
:10242000FEF774FED4E90023192148439900B0FB5C
:10243000F1F048F21F5CC5F2EB1CA0FB0C314FF62B
:102440009C734909C0F6FF7301FB0300322303EBC1
:102450000010A0FB0C03F02000EA531000EB011069
:10246000C3F34311084490601069202120F4904088
:102470001061506920F02A005061D06840F400508B
:10248000D0600020606484F8411084F842106063DA
:1024900010BD00002DE9F04186B00446006844F20A
:1024A0000041C4F20001002788420597CDE9037777
:1024B000029739D043F60001C4F20101884240F08E
:1024C000998041F21800C4F20200016840F600044D
:1024D00041F4804101600168C4F2010401F48041CB
:1024E00001910199016802AD41F0040101600068A9
:1024F000294600F00400019001984FF4007002900A
:1025000002200390032005902046FEF713F94FF4B4
:10251000806002900020CDE9030020462946FEF7A6
:1025200009F906B0BDE8F08141F21800C4F20200DA
:10253000416840F6000541F4003141604168C4F251
:10254000010501F4003101910199016802AE41F0E9
:1025500004010160006840F26C0800F00400019082
:102560000198042002900220039003200590284641
:102570003146C4F20208FEF7DDF80820CDE9020773
:10258000284631460497FEF7D5F840F6A045C2F23A
:10259000000580262846C5E90087C5E90276C5E919
:1025A0000477C5E90677FEF731F8002818BFFDF774
:1025B00005FEE5636C6240F6E44508F11400C2F2E2
:1025C00000051021002285E847002846C5E90422BD
:1025D000C5E90622FEF71AF8002818BFFDF7EEFD40
:1025E000262005210022A5636C62FEF73BFC262015
:1025F000FEF726FC06B0BDE8F08100007047000041
:10260000704700002DE9F04381B0044690F8410086
:10261000202840F0B180884600294FF0010000F0EA
:10262000D6801646002A00F0D28000206064212067
:102630001D4684F84100FEF785F9A684E684A1686A
:102640000646B1F5805F03D12069002800F098802C
:1026500047464FF00008E18C2068002900F0968082
:1026600005F101090BE000BF47B317F8011B4160FA
:10267000E18C0139E184E18C002900F08780016858
:102680000906F1D4B9F1000F0AD0EDB1FEF75AF9FD
:10269000801BA84218D8206801680906F6D5E3E730
:1026A00001680906E0D4016809065CBF01685FEAB9
:1026B0000161D9D401680906F2D5D5E738F8021BC3
:1026C00000276FF35F21D2E7206850E8030F2168ED
:1026D00020F4D07041E80302BAB3206850E8030F39
:1026E000216820F4D07041E8030272B3206850E8FA
:1026F000030F216820F4D07041E803022AB3206858
:1027000050E8030F216820F4D07041E80302002A4A
:10271000DAD11AE0206850E8050F216820F00100A6
:1027200041E80502DAB1206850E8050F216820F081
:10273000010041E8050292B1206850E8050F2168C8
:1027400020F0010041E805024AB1206850E8050F79
:10275000216820F0010041E80502002ADAD120209A
:1027600084F8410084F84200002084F840000320EF
:1027700001B0BDE8F08300BF022001B0BDE8F083E6
:102780000027E18C206800297FF46AAF01684906C0
:1027900019D4FDB1691C0DD10168490613D4016833
:1027A00049065CBF01685FEA41610CD401684906D3
:1027B000F2D508E0FEF7C6F8801BA8420AD82068C8
:1027C00000684006F6D5202084F84100002001B0C2
:1027D000BDE8F083206850E8030F216820F4D07032
:1027E00041E80302002A3ED0206850E8030F216828
:1027F00020F4D07041E80302AAB3206850E8030F28
:10280000216820F4D07041E8030262B3206850E8E8
:10281000030F216820F4D07041E80302002AD9D1C7
:1028200021E000BF206850E8050F216820F001007A
:1028300041E80502002A3FF492AF206850E8050FF6
:10284000216820F0010041E80502002A3FF487AF2B
:10285000206850E8050F216820F0010041E80502DA
:10286000002A3FF47CAF206850E8050F216820F073
:10287000010041E80502002AD4D170E770B5044692
:1028800090F8410020281CBF022070BD00294FF0A5
:1028900001004DD0002A134608BF70BD4FF0000C58
:1028A00021202162A384E384C4F844C084F8410059
:1028B0002268A06B44F2192E44F2C92543F625760E
:1028C000C0F6000EC0F60005C0F600060432C0E9EE
:1028D0000AE5C0E90C6CFDF7DDFE20686FF04001F1
:1028E000016000BF206850E8050F216840F08000BB
:1028F00041E80502DAB1206850E8050F216840F090
:10290000800041E8050292B1206850E8050F216877
:1029100040F0800041E805024AB1206850E8050F08
:10292000216840F0800041E80502002ADAD1002049
:1029300070BD00007047000070470000FEE7000017
:1029400070B50368044653F8140F400711D40E46BF
:10295000481C29D086BB00BF1868400527D4FDF766
:10296000F1FF236853F8140F400737D51868400764
:10297000F2D5002070BD00BF18684007F9D4186870
:10298000400514D418684007F3D4186840050ED4E5
:1029900018684007EDD41868400508D41868400747
:1029A0004FF0000048BF70BD18684005E4D56FF4D3
:1029B00080601860042012E0154603E053F8140FFD
:1029C0004007D6D418684005F1D4FDF7BBFF401B83
:1029D0002368B042F2D958694007EFD42020002183
:1029E0002022216384F83D2084F83E10226C10439D
:1029F0002064012084F83C1070BD00002DE9F041F6
:102A0000054600681E46144601F47F0201338FB26A
:102A100042D0DDF81880B2F5803F40F087804069F1
:102A20003840C01BB0FA80F04009A04240F0C88096
:102A30004EB924E040693840C01BB0FA80F040092C
:102A4000A04240F0BD80FDF77DFFA0EB08012868A3
:102A5000B142EFD941693940C91BB1FA81F1490945
:102A6000A142E7D19BE000BF40693840C01BB0FAEB
:102A700080F04009A0424FF0000040F0A280FDF736
:102A800061FF286841693940C91BB1FA81F14909E0
:102A9000A142E9D183E000BFB2F5803F24D100BF5D
:102AA00041693940C91BB1FA81F14909A14240F09D
:102AB000878041693940C91BB1FA81F14909A142B6
:102AC00040F07E8041693940C91BB1FA81F1490962
:102AD000A14275D141693940C91BB1FA81F1490957
:102AE000A142DDD06CE000BF81693940C91BB1FA59
:102AF00081F14909A14263D181693940C91BB1FA09
:102B000081F14909A1425BD181693940C91BB1FA00
:102B100081F14909A14253D181693940C91BB1FAF8
:102B200081F14909A142DFD04AE000BF8069384005
:102B3000C01BB0FA80F04009A04241D146B923E061
:102B400080693840C01BB0FA80F04009A04237D1FC
:102B5000FDF7F8FEA0EB08012868B142F0D98169C1
:102B60003940C91BB1FA81F14909A142E8D116E007
:102B700080693840C01BB0FA80F04009A0424FF095
:102B8000000018BFBDE8F081FDF7DCFE2868816910
:102B90003940C91BB1FA81F14909A142E8D10020AD
:102BA0002021286385F83D1085F83E00296C41F00E
:102BB0002001296485F83C000120BDE8F08100BFB8
:102BC0000020BDE8F0810000F0B581B00446006847
:102BD0001D4643698FB203EA0701B94202D10020C2
:102BE00001B0F0BD4169164601323FD049053FD4DE
:102BF000CEB100BFFDF7A6FE411B2068B14203D94C
:102C000041693940B94215D141693940B942E6D0EC
:102C100041694905EED52BE041693940B942DED022
:102C20004169490524D4FDF78DFE2068416939408A
:102C3000B942F1D0202023E041693940B942CED0D9
:102C40004169490514D441693940B942C7D0416945
:102C500049050DD441693940B942C0D0416949059F
:102C600006D441693940B942B9D041694905E3D533
:102C7000016841F4007101606FF4806141610420DA
:102C800000212022216384F83D2084F83E10226C2C
:102C90001043206484F83C10012001B0F0BD000016
:102CA00070B50368044653F8140F000611D40E469D
:102CB000481C29D086BB00BF1868400527D4FDF703
:102CC00041FE236853F8140F000637D51868000634
:102CD000F2D5002070BD00BF18680006F9D418684E
:102CE000400514D418680006F3D4186840050ED4C3
:102CF00018680006EDD41868400508D41868000666
:102D00004FF0000048BF70BD18684005E4D56FF46F
:102D100080601860042012E0154603E053F8140F99
:102D20000006D6D418684005F1D4FDF70BFE401B11
:102D30002368B042F2D958690006EFD42020002160
:102D40002022216384F83D2084F83E10226C104339
:102D50002064012084F83C1070BD000080B582B072
:102D600041F21400C4F202000168002241F00101A6
:102D700001600068052100F0010001900198102019
:102D8000FEF770F81020FEF75BF8112005210022F5
:102D9000FEF768F8112002B0BDE88040FEF750B899
:102DA00070B582B043F6D56048F68442C0F60000A4
:102DB000C0F60002002101F0CDFB40F24005C2F256
:102DC0000005E86040F2C9102C1D1826C0F600006E
:102DD0000AA14FF480720023CDE9006403F08AF861
:102DE00043F625500835C0F600000AA180220023D2
:102DF000CDE9006503F07EF802B070BD46696E67EC
:102E000065727072696E745265636F676E6974691A
:102E10006F6E00004F4C45445461736B000000001E
:102E200070B586B0002641F218000596C4F2020083
:102E3000016840F6000441F0100101600168C4F22D
:102E4000010401F0100101910199016802AD41F006
:102E500020010160016801F02001019101990168E0
:102E600041F004010160016801F004010191019940
:102E7000016841F0080101600068294600F008007F
:102E8000019001984FF40040CDE9020604F500607E
:102E90000496FDF74FFC0320CDE9020620462946A3
:102EA0000496FDF747FC06B070BD000080B540F603
:102EB000285045F20041C2F20000C4F2000141F680
:102EC000802200234FF4804CC0F2060280E80E00FE
:102ED000C0E9033CC0E90533C0E90733FDF738FD1D
:102EE000002808BF80BDBDE88040FDF767B900003D
:102EF000B0B590B040F2004540F6C450C4F20005B1
:102F00000021C2F200004FF6FF72CDE90811CDE9B1
:102F10000611CDE90411C0E90051C0E902120161B6
:102F20008161FEF7B7FD002818BFFDF747F940F6AD
:102F3000C450C2F2000008A9FEF700FB002818BF29
:102F4000FDF73CF9602001900020CDE902000590DA
:102F500040F6C450C2F2000001A90022FEF79AFC1C
:102F6000002818BFFDF72AF940F6C454C2F2000445
:102F700001A920460422FEF78DFC002818BFFDF7AA
:102F80001DF920680021A8420E9101D010B0B0BDFB
:102F900041F21800C4F20200016841F0040101602E
:102FA00000680CA900F004000B900B98C0200C9056
:102FB00002200D900F9005F58230FDF7BBFB10B09D
:102FC000B0BD000080B540F60C6043F60001C2F2CF
:102FD0000000C4F2010100234FF00C0C4FF4E13269
:102FE00080E80E00C0E90333C0E905C3C361FFF701
:102FF000DFF9002808BF80BDBDE88040FDF7DEB8DE
:1030000080B540F6546044F20041C2F20000C4F2C0
:10301000000100234FF00C0C4FF4614280E80E00D9
:10302000C0E90333C0E905C3C361FFF7C1F9002854
:1030300008BF80BDBDE88040FDF7C0B8FEE70000D6
:10304000FEE7000010B582B0D2F804E09C46137889
:1030500054787246CDE9004C00F0A6F902B010BDDC
:103060002DE9F04381B040F2C07440F62855C2F219
:103070000004AE20C2F2000560704FF0FF36284613
:103080007821224602230096FDF714FD4FF0200818
:10309000284678212246022384F801800096FDF715
:1030A00009FD1027284678212246022367700096E2
:1030B000FDF700FDB02060702846782122460223EB
:1030C0000096FDF7F7FCC020607028467821224664
:1030D00002230096FDF7EEFC4FF000092846782108
:1030E0002246022384F801900096FDF7E3FC28466F
:1030F00078212246022367700096FDF7DBFC402012
:10310000607028467821224602230096FDF7D2FC03
:103110008120607028467821224602230096FDF720
:10312000C9FCDF20607028467821224602230096E1
:10313000FDF7C0FCA02060702846782122460223BB
:103140000096FDF7B7FCA62060702846782122463D
:1031500002230096FDF7AEFCA82060702846782177
:10316000224602230096FDF7A5FC3F20607028460A
:103170007821224602230096FDF79CFCA420607073
:1031800028467821224602230096FDF793FCD3209F
:10319000607028467821224602230096FDF78AFCBB
:1031A000284678212246022384F801900096FDF7F4
:1031B00081FCD520607028467821224602230096A3
:1031C000FDF778FCF0206070284678212246022323
:1031D0000096FDF76FFCD9206070284678212246C2
:1031E00002230096FDF766FC2220607028467821B5
:1031F000224602230096FDF75DFCDA206070284627
:103200007821224602230096FDF754FC12206070BC
:1032100028467821224602230096FDF74BFCDB204E
:10322000607028467821224602230096FDF742FC72
:10323000284678212246022384F801800096FDF773
:1032400039FC8D20607028467821224602230096A2
:10325000FDF730FC142060702846782122460223B6
:103260000096FDF727FC40F2C030C2F200004FF498
:103270008061FCF770FF00F0F5FBAF20607028461E
:103280007821224602230096FDF714FC01B0BDE828
:10329000F083000080B540F2C030C2F200004FF46D
:1032A0008061FCF758FF80BD2DE9F04F01F0070C5D
:1032B000DDF824E003EB0C04092C4FEAD10847D3D6
:1032C00045B2002D20D43F291ED8CCF1080BFF2396
:1032D00023FA0BF940F2C033C2F2000302FA0CF6F3
:1032E00003EBC813BEF1000F18BFF64313F800A09C
:1032F00046EA09070AEA07096FF0FF0747FA0BF7E2
:103300003E4046EA09061E54002D4BD4372949D8C1
:1033100004F1F703CCF10807FA40DBB24FF4FF7772
:1033200007FA03F340F2C03708F10101C2F20007C7
:1033300007EBC111BEF1000F18BFD2430F5C42EA88
:10334000030637409A433A430A54BDE8F08F00BF62
:1033500043B2002B26D43F2988BFBDE8F08F611E01
:10336000C9B24FF4FF7340F2C03603FA01F1CCF159
:103370000803FF27C2F2000602FA0CF2DF4006EB58
:10338000C816BEF1000F18BFD2431743355C0F4378
:103390002F406FF0FF0545FA03F323EA01011140C6
:1033A00039433154BDE8F08F2DE9F04F93B0002B35
:1033B0000592119100F052838146DDE91C0A1D46F9
:1033C000BAF1000FD0464FEAD00218BF4FF0FF38D5
:1033D000082800F0070B05D2BBF1000F40F0238353
:1033E0003CE300BF1198CDF8189000F00707C7F133
:1033F0000801FF20C84012906FF0FF0040FA01F969
:103400001046CDF808B00E91012A019298BF012014
:1034100000F00301079105EB4501002F0F914FEAE2
:1034200085011091CDE9030500F0E081791EC9B254
:103430004FF4FF7202FA01F10D91C9430C9169003A
:103440000A9100F01C0148424FF0000ABE460B9062
:1034500009950FE00F980AF1010A01300F900A98C0
:10346000AA4500F101000A90099800F101000990B5
:1034700000F0CE8206980AEB00014AB2002AE9D495
:1034800003985FFA81FC042806D2002107980028DF
:1034900040F0F680DEE700BF05990324CDF820A0B8
:1034A00008E000BF0B98043420440328109801441E
:1034B00000F0DE80119800EBC40AAAF11802D5B220
:1034C0003F2D30D808984FEAD50B0A5C40F2C03047
:1034D000C2F2000002FA07F300EBCB17129E83EA58
:1034E000080317F80C001E43304003EA0903184391
:1034F000372D07F80C00774615D80E9B0BF101000D
:10350000DA4040F2C033C2F2000303EBC0100D9D5D
:1035100082EA080210F80C3015432B400C9D2A401B
:103520001A4300F80C20AAF11000C2B23F2A30D88A
:10353000099840F2C03511F800B0D308C2F2000576
:103540000BFA07F005EBC316129D80EA080016F887
:103550000C7005433D4000EA090077462843372AAE
:1035600006F80C0015D8581C0E9A40F2C033C2F26F
:1035700000032BFA02F203EBC0100D9D82EA080251
:1035800010F80C3015432B400C9D2A401A4300F8CC
:103590000C20AAF10800C2B23F2A30D80A9840F2A3
:1035A000C03511F800B0D308C2F200050BFA07F0DD
:1035B00005EBC316129D80EA080016F80C7005434F
:1035C0003D4000EA090077462843372A06F80C00F8
:1035D00015D8581C0E9A40F2C033C2F200032BFAE1
:1035E00002F203EBC0100D9D82EA080210F80C30C5
:1035F00015432B400C9D2A401A4300F80C205FFA1B
:103600008AF23F2A3FF64EAF0F9840F2C03511F8CC
:1036100000A0D308C2F200050AFA07F005EBC316B2
:10362000129D80EA080016F80C7005433D4000EA40
:10363000090077462843372A06F80C003FF632AFD8
:10364000581C0E9A40F2C033C2F200032AFA02F26A
:1036500003EBC0100D9D82EA080210F80C301543F0
:103660002B400C9D2A401A4300F80C201AE700BF9B
:10367000049DDDF820A0E11E079800283FF4EAAE83
:10368000119800EBC100C4B23F2C31D801FB05A05A
:10369000059A40F2C035125CE308C2F2000502FA56
:1036A00007F005EBC315129F80EA080015F80C60BF
:1036B00007433E4000EA0900304305F80C00049D32
:1036C0007746372C14D8581C0E9B0D9CDA4040F2DC
:1036D000C033C2F2000303EBC01082EA080210F804
:1036E0000C30144323400C9C22401A4300F80C2059
:1036F000079801283FF4AEAE11984A1C00EBC200B7
:10370000C4B23F2C31D802FB05A0059A40F2C03567
:10371000125CE308C2F2000502FA07F005EBC315DC
:10372000129F80EA080015F80C6007433E4000EA4B
:103730000900304305F80C00049D7746372C14D857
:10374000581C0E9B0D9CDA4040F2C033C2F20003BD
:1037500003EBC01082EA080210F80C301443234037
:103760000C9C22401A4300F80C20079802283FF4D2
:1037700071AE11988A1C00EBC200C1B23F293FF61E
:1037800069AE02FB05A0059A40F2C034125CCB087A
:10379000C2F2000402FA07F004EBC314129E80EA9E
:1037A000080014F80C500643354000EA090028438D
:1037B000049D372904F80C003FF64CAE0E99581CB6
:1037C00022FA01F140F2C032C2F2000202EBC01054
:1037D0000D9B81EA080110F80C200B431A400C9B4A
:1037E0001940114300F80C1034E600BF69000E9137
:1037F00000F01C01C1F1000E4FF0000AAB460DE0D5
:103800000F980AF1010A01300F900E98AA4500F1B5
:1038100001000BF1010B0E9000F0FA8006980AEB04
:1038200000014AB2002AEBD40398CAB2042805D298
:1038300000210798002840F08980E1E7059B0321DB
:1038400007E000BF04310EEB010003281098034489
:1038500076D0119800EBC105A5F11804E6B23F2E11
:103860000ED9A5F11004E0B23F2824D9A5F108042F
:10387000E0B23F2838D9E8B23F28E3D84BE000BF98
:1038800040F2C03013F80A6004F0F804C2F20000FD
:1038900000EB0414129F86EA0806A05C46EA070CB7
:1038A00000EA0C0006EA09063043A054A5F1100412
:1038B000E0B23F28DAD840F2C03713F80B0004F02A
:1038C000F806C2F2000707EB0616129F80EA08000E
:1038D000B45C0743274000EA09003843B054A5F11F
:1038E0000804E0B23F28C6D80E9840F2C036185CF3
:1038F00004F0F807C2F2000606EB0717129C80EAF4
:103900000800BE5C0443264000EA09003043B85476
:10391000E8B23F2896D80F9840F2C036185C05F000
:10392000F807C2F2000606EB0717129D80EA0800AE
:10393000BE5C05432E4000EA09003043B85481E7DD
:10394000049D0339079800283FF45AAF119800EB03
:10395000C103D8B23F2815D801FB05A0059F03F08D
:10396000F803385C40F2C037C2F2000707EB0313DC
:10397000129E80EA08009F5C0643374000EA090077
:1039800038439854079801283FF43AAF11984D1CDA
:1039900000EBC503D8B23F2816D80498059F05FB55
:1039A00000A003F0F803385C40F2C037C2F2000711
:1039B00007EB0313129E80EA08009F5C0643374022
:1039C00000EA0900384398540798049D02283FF400
:1039D00017AF11988B1C00EBC301C8B23F283FF60C
:1039E0000FAF03FB05A0059B01F0F801185C40F246
:1039F000C033C2F2000303EB0111129F80EA0800FA
:103A00008B5C07433B4000EA090018438854F7E603
:103A1000DDF808B0DDF81890019ADDE91C0ABBF169
:103A2000000F1BD0D5B1119900F0F80001440598A2
:103A3000CEB202FB05046D424FF0FF30471C20441C
:103A4000427807EB0900C0B231465B46CDF800A0D2
:103A5000FFF72AFCE81901303846EFD113B0BDE872
:103A6000F08F00002DE9F04F81B040F2C278C2F231
:103A700000084020454640F2C07740F6285605F839
:103A8000010BC2F20007B020C2F2000678704FF0BE
:103A9000FF34304678213A4602230094FDF70AF8B5
:103AA0004FF0000A304678213A46022387F801A0F9
:103AB0000094FCF7FFFF4FF0100B304678213A4698
:103AC000022387F801B00094FCF7F4FF40F2C039FC
:103AD000C2F20009284649468022FCF723FB304603
:103AE0007821424681230094FCF7E4FFB1207870EE
:103AF000304678213A4602230094FCF7DBFF30463B
:103B000078213A46022387F801A00094FCF7D2FFFF
:103B1000304678213A46022387F801B00094FCF73A
:103B2000C9FF09F1800128468022FCF7FBFA3046E4
:103B30007821424681230094FCF7BCFFB2207870C4
:103B4000304678213A4602230094FCF7B3FF304612
:103B500078213A46022387F801A00094FCF7AAFFD7
:103B6000304678213A46022387F801B00094FCF7EA
:103B7000A1FF09F5807128468022FCF7D3FA304670
:103B80007821424681230094FCF794FFB32078709B
:103B9000304678213A4602230094FCF78BFF3046EA
:103BA00078213A46022387F801A00094FCF782FFAF
:103BB000304678213A46022387F801B00094FCF79A
:103BC00079FF09F5C07128468022FCF7ABFA304630
:103BD0007821424681230094FCF76CFFB420787072
:103BE000304678213A4602230094FCF763FF3046C2
:103BF00078213A46022387F801A00094FCF75AFF87
:103C0000304678213A46022387F801B00094FCF749
:103C100051FF09F5007128468022FCF783FA3046EF
:103C20007821424681230094FCF744FFB520787048
:103C3000304678213A4602230094FCF73BFF304699
:103C400078213A46022387F801A00094FCF732FF5E
:103C5000304678213A46022387F801B00094FCF7F9
:103C600029FF09F5207128468022FCF75BFA3046CF
:103C70007821424681230094FCF71CFFB62078701F
:103C8000304678213A4602230094FCF713FF304671
:103C900078213A46022387F801A00094FCF70AFF36
:103CA000304678213A46022387F801B00094FCF7A9
:103CB00001FF09F5407128468022FCF733FA3046AF
:103CC0007821424681230094FCF7F4FEB7207870F7
:103CD000304678213A4602230094FCF7EBFE30464A
:103CE00078213A46022387F801A00094FCF7E2FE0F
:103CF000304678213A46022387F801B00094FCF759
:103D0000D9FE09F5607128468022FCF70BFA30468F
:103D10007821424681230094FCF7CCFE01B0BDE837
:103D2000F08F0000142001F06FFBFFF799F940F2CB
:103D30001004C2F2000400BFFFF7ACFA22680020B2
:103D400000210023FFF77EF9FFF78CFE4FF4FA60A5
:103D500001F05AFBFFF79EFA626800200021002361
:103D6000FFF770F9FFF77EFE4FF4FA6001F04CFBAD
:103D7000FFF790FAA268002000210023FFF762F904
:103D8000FFF770FE4FF4FA6001F03EFBFFF782FA96
:103D9000E268002000210023FFF754F9FFF762FEDC
:103DA0004FF4FA6001F030FBFFF774FA226900204B
:103DB00000210023FFF746F9FFF754FE4FF4FA60A5
:103DC00001F022FBFFF766FA626900200021002360
:103DD000FFF738F9FFF746FE4FF4FA6001F014FBE5
:103DE000FFF758FAA269002000210023FFF72AF903
:103DF000FFF738FE4FF4FA6001F006FBFFF74AFACE
:103E0000E269002000210023FFF71CF9FFF72AFEDA
:103E10004FF4FA6001F0F8FAFFF73CFA226A00204A
:103E200000210023FFF70EF9FFF71CFE4FF4FA60A4
:103E300001F0EAFAFFF72EFA626A0020002100235F
:103E4000FFF700F9FFF70EFE4FF4FA6001F0DCFA1D
:103E500072E7000000000000000000000000000009
:103E6000EFF30980BFF36F8F0D4B1A6820E9F00F55
:103E700010602DE908404FF0500080F3118801F0E8
:103E80000BFC4FF0000080F31188BDE80840196872
:103E90000868B0E8F00F80F30988BFF36F8F7047B0
:103EA000640000200000000000000000000000008E
:103EB000074B19680868B0E8F00F80F30988BFF372
:103EC0006F8F4FF0000080F311884EF00D0E704799
:103ED00064000020FEE7000080B54FF0500080F342
:103EE0001188BFF36F8FBFF34F8F02F083F830B1AB
:103EF0004EF60450CEF200004FF0805101600020D9
:103F000080F3118880BD00007047000040F67C50AF
:103F1000C2F20000FDF704BC406A0021C185C184E3
:103F2000FDF78CBF406A01684A6990F84130212B47
:103F30002DD112F080022AD00021C184016851E8FD
:103F4000031F026821F0C00142E80313DBB10168DE
:103F500051E8031F026821F0C00142E8031393B146
:103F6000016851E8031F026821F0C00142E8031311
:103F70004BB1016851E8031F026821F0C00142E81B
:103F80000313002BDAD1202180F841100168496920
:103F900090F84220222A40F07D8011F0400179D033
:103FA0000021C185016851E8031F026821F4907166
:103FB00042E80313BBB3016851E8031F026821F410
:103FC000907142E8031373B3016851E8031F02685C
:103FD00021F4907142E803132BB3016851E8031FE9
:103FE000026821F4907142E80313002BDAD11AE041
:103FF000016851E8051F026821F0010142E805133C
:10400000DBB1016851E8051F026821F0010142E8B7
:10401000051393B1016851E8051F026821F0010101
:1040200042E805134BB1016851E8051F026821F011
:10403000010142E80513002BDAD1016B012924D1DB
:10404000016851E8031F026821F0100142E80313E0
:10405000DBB1016851E8031F026821F0100142E85A
:10406000031393B1016851E8031F026821F01001A6
:1040700042E803134BB1016851E8031F026821F0C5
:10408000100142E80313002BDAD1202180F84210FE
:1040900000210163416C41F010014164FDF7CEBE87
:1040A0000168406A0968890600F19F800021C18586
:1040B000016851E8031F026821F4807142E803138C
:1040C000E3B1016851E8031F026821F4807142E8FE
:1040D00003139BB1016851E8031F026821F480714A
:1040E00042E8031353B1016851E8031F026821F449
:1040F000807142E80313002BDAD100BF016851E858
:10410000051F026821F0010142E80513BBB30168F5
:1041100051E8051F026821F0010142E8051373B35D
:10412000016851E8051F026821F0010142E805130A
:104130002BB3016851E8051F026821F0010142E834
:104140000513002BDAD11AE0016851E8051F026857
:1041500021F0400142E80513DBB1016851E8051F79
:10416000026821F0400142E8051393B1016851E86B
:10417000051F026821F0400142E805134BB10168B8
:1041800051E8051F026821F0400142E80513002BA9
:10419000DAD1202180F84210016B012925D100BF1E
:1041A000016851E8031F026821F0100142E803137F
:1041B000DBB1016851E8031F026821F0100142E8F9
:1041C000031393B1016851E8031F026821F0100145
:1041D00042E803134BB1016851E8031F026821F064
:1041E000100142E80313002BDAD100214163016B77
:1041F000012918BFFEF702BA818DFDF7CBBD000083
:10420000406A01214163016B012918BFFEF7F8B92B
:10421000818D4908FDF7BEBD0168406A09688906BD
:1042200048BFFEF787BB0021C18400BF016851E889
:10423000051F026821F0800142E8051383B301687D
:1042400051E8051F026821F0800142E805133BB3E5
:10425000016851E8051F026821F0800142E805135A
:10426000F3B1016851E8051F026821F0800142E8BE
:104270000513002BDAD113E0016851E8031F02682F
:1042800041F0400142E80313002B08BF704701686A
:1042900051E8031F026841F0400142E8031393B163
:1042A000016851E8031F026841F0400142E803132E
:1042B0004BB1016851E8031F026841F0400142E838
:1042C0000313002BD8D17047406AFEF735BB0000BE
:1042D00081B090F84210222921D183680246B3F5BB
:1042E000805F09D152F8281F52F8183C002B63D088
:1042F00003685B680AE000BF52F8281F13B903691E
:10430000002BF5D003685B6803F07F030B70116826
:1043100001311160C18D01390A04C18502D001B09B
:10432000704700BF0168CA6822F02002CA60CA68EC
:1043300022F48072CA604A6922F001024A61202197
:1043400080F8421000214163026B012A3CD10163D5
:10435000016851E8031F026821F0100142E80313CD
:10436000DBB1016851E8031F026821F0100142E847
:10437000031393B1016851E8031F026821F0100193
:1043800042E803134BB1016851E8031F026821F0B2
:10439000100142E80313002BDAD101680A68D20643
:1043A00006D5002200920A6800924968009100999F
:1043B000818D01B0FDF7EEBC026852686FF35F2299
:1043C00021F8022B8162A5E701B0FEF717B90000C2
:1043D00040F65460C2F20000FDF732BDFEE7000077
:1043E00080B582B0019040F60C60C2F2000001A9D5
:1043F00001224FF6FF73FEF705F9019802B080BD68
:1044000090B0FCF785FC00240120CDE90B44CDE9F8
:10441000094406900A904FF4E0104FF480310225D1
:104420000F9006A8CDE90714CDE90D51FCF782FEE7
:1044300020B1EFF3108072B6FEE700BF0F20CDE988
:1044400001054FF48060CDE9040401A80221039422
:10445000FCF744FD20B1EFF3108072B6FEE700BF19
:10446000FEF7DEFCFEF77AFCFEF742FDFEF7AAFD42
:10447000FEF7C6FDFEF71AFD05A001F08BFF00F068
:1044800029F8FEF78DFC00F043F800BFFEE700BFFF
:104490007265616479000000EFF3058111B9EFF3F3
:1044A000108119B16FF00500704700BF40F2BC31B8
:1044B000C2F200010968022903D1EFF3118100293A
:1044C000F0D1002804BF0020704780B500F09CFFA9
:1044D000002080BDEFF3058010B9EFF3108018B114
:1044E0006FF00500704700BF40F2BC30C2F2000020
:1044F0000168022904D1EFF311810029F0D101688C
:10450000002911BF4FF0FF300121016000207047EA
:10451000EFF3058010B9EFF3108018B16FF00500CC
:10452000704700BF40F2BC30C2F2000001680229AF
:1045300004D1EFF311810029F0D1016801291CBFDA
:104540004FF0FF30704780B50221016001F026F87E
:10455000002080BD2DE9F04186B000240B46049474
:10456000EFF3058121B1204606B0BDE8F08100BF20
:10457000EFF310810029F6D140F2BC31C2F2000104
:104580000968022906D10028EFF31181EBD019B197
:10459000E9E700BF0028E6D00DF117018DF81740BC
:1045A00082B31768D2F818E0002F18BF3946BEF161
:1045B000000F08BF4FF0180EBEF1380FD3D817798F
:1045C000FF07D0D15769D2E902864FEA970C002F36
:1045D000654608BF8025B8F1000F25D05C2EC2D3F8
:1045E0001269002A18BF002FBDD0CDE900E2624653
:1045F000CDF8088001F0AEFC0446204606B0BDE8C8
:10460000F08100BF80254FF0180E04AFAAB2CDE9AB
:1046100000E701F06FFC0499012808BF0C46204612
:1046200006B0BDE8F08100BF002E9CD11269002ABF
:1046300099D1EAE72DE9F041044600F0A7FD40F2E8
:104640006406C2F20006F06840F68C750130F06036
:104650003068C2F2000558B13069002840F0078187
:104660003068E16AC06A884298BF3460FFE000BFEA
:104670003460F068012840F0FA80284600F036FDEA
:1046800005F1140000F032FD05F1280000F02EFDC8
:1046900005F13C0000F02AFD05F1500000F026FD78
:1046A00005F1640000F022FD05F1780000F01EFD28
:1046B00005F18C0000F01AFD05F1A00000F016FDD8
:1046C00005F1B40000F012FD05F1C80000F00EFD88
:1046D00005F1DC0000F00AFD05F1F00000F006FD38
:1046E00005F5827000F002FD05F58C7000F0FEFC0F
:1046F00005F5967000F0FAFC05F5A07000F0F6FCE8
:1047000005F5AA7000F0F2FC05F5B47000F0EEFCBF
:1047100005F5BE7000F0EAFC05F5C87000F0E6FC97
:1047200005F5D27000F0E2FC05F5DC7000F0DEFC6F
:1047300005F5E67000F0DAFC05F5F07000F0D6FC47
:1047400005F5FA7000F0D2FC05F5027000F0CEFC21
:1047500005F5077000F0CAFC05F50C7000F0C6FC0A
:1047600005F5117000F0C2FC05F5167000F0BEFCF6
:1047700005F51B7000F0BAFC05F5207000F0B6FCE2
:1047800005F5257000F0B2FC05F52A7000F0AEFCCE
:1047900005F52F7000F0AAFC05F5347000F0A6FCBA
:1047A00005F5397000F0A2FC05F53E7000F09EFCA6
:1047B00005F5437000F09AFC05F5487000F096FC92
:1047C00005F54D7000F092FC05F5527000F08EFC7E
:1047D00005F5577000F08AFC05F55C7000F086FC6A
:1047E00005F5617000F082FC05F5667000F07EFC56
:1047F00005F56B7000F07AFC05F5707000F076FC42
:1048000005F5757000F072FC05F57A7000F06EFC2D
:1048100005F57F7000F06AFC05F5826000F066FC2B
:1048200005F2244000F062FC05F5876000F05EFCB4
:1048300005F24C4000F05AFC40F23818C2F2000871
:10484000404600F053FC08F11407384600F04EFCD7
:1048500006F1640000F04AFC06F13C0000F046FC62
:1048600006F1500000F042FCC6F81C803762706808
:10487000716A421CE06A72608842626488BF70623A
:1048800000EB800005EB8000211D00F071FC00F0C2
:10489000A1FC306988B13068E16AC06A884228BFEB
:1048A000BDE8F0814EF60450CEF200004FF080518A
:1048B0000160BFF34F8FBFF36F8FBDE8F081000041
:1048C00040F2640540F68C764EF60458C2F20005BC
:1048D000C2F20006CEF200084FF0805703E000BF9E
:1048E000204600F08FFCA868D0B100F04FFCA86C07
:1048F000C468201D00F0CCFBE8680138E860A868B7
:104900000138A86000F066FC94F859000228EAD04B
:104910000128E5D070B9206B00F074FCE0E700BF1F
:1049200030680228DFD3C8F80070BFF34F8FBFF3A1
:104930006F8FD8E74FF0500080F31188BFF36F8F6F
:10494000BFF34F8FFEE700002DE9F0470A9C824637
:10495000206B16460F46DDE908599100A5229846BE
:10496000FBF7F2FB3978206B84F8341000EB8600FB
:1049700039780438002920F007064BD0787884F87D
:1049800035007878002845D0B87884F83600B878B3
:1049900000283FD0F87884F83700F878D0B3387919
:1049A00084F838003879A8B3787984F839007879B0
:1049B00080B3B87984F83A00B87958B3F87984F8B4
:1049C0003B00F87930B3387A84F83C00387A08B381
:1049D000787A84F83D00787AE0B1B87A84F83E00BD
:1049E000B87AB8B1F87A84F83F00F87A90B1387B99
:1049F00084F84000387B68B1787B84F84100787B8C
:104A000040B1B87B84F84200B87B00281CBFF87B1B
:104A100084F843000027201D84F84370372D28BFF9
:104A20003725E562C4E9135700F06CFB04F1180068
:104A300000F068FBC5F13800A0613046514642469F
:104A400024616462676584F8587000F011FBB9F165
:104A5000000F206018BFC9F80040BDE8F0870000D3
:104A600006480068006880F3088862B661B6BFF344
:104A70004F8FBFF36F8F00DF00BF000008ED00E035
:104A800081B00020009040F23800C2F200000068BF
:104A90004FF0500181F31188BFF36F8FBFF34F8F39
:104AA000013007D0FEE700BF009830B9009820B968
:104AB000009810B900980028F6D001B070470000A7
:104AC00088B040F2DC0AC2F2000A4FF0000B0DF190
:104AD0001009E846DAF8080005681DB1C0680468E6
:104AE00001E000BF002400F0CFFD01F07DFADAF80C
:104AF00010100646884224D3002DCAF8106053D007
:104B0000A64251D301F074FBDAF80800C068C76808
:104B10003D1D284600F0BCFAF869012840F080806D
:104B2000B8693F610119B14279605BD90AF10800A7
:104B30005DE000BF6860DAF8080039462D6100F0DA
:104B4000E5FADAF80800016821B3C068C5680468AE
:104B50002F1D384600F09CFA696A28468847E869A4
:104B60000128EED1A8692044A042E3D8DAF8000079
:104B7000002800F02581CDE904B4069501F024FA5F
:104B8000DAF8000049460022002300F0E9FE002880
:104B9000D7D115E1DAF80C10CAF81060CAE9021092
:104BA00001F026FB46E000BF15B1002206E000BF81
:104BB000DAF80C000068B0FA80F04209DAF8000078
:104BC000A11B00F0F7FB01F013FB98BB4EF604505D
:104BD000CEF200004FF080510160BFF34F8FBFF362
:104BE0006F8F27E0311B814206D20AF10C0000686A
:104BF000294600F08BFA13E0DAF80000002800F0F4
:104C0000FD80CDE904B4069701F0DEF9DAF8000082
:104C100049460022002300F0A3FE002800F0EE80A9
:104C2000796A3846884705E00AF10C00006800F010
:104C30006DFA00BFDAF800004146002200F0EEFFF6
:104C400000283FF447AF0098B0F1FF3F06DCDDE9F4
:104C500001200399904700980028EBD4029E7069C8
:104C600010B1301D00F014FA01F0BEF9DAF810109E
:104C7000074688420DD30098CAF8107009283BD91E
:104C8000D8E700BF6860DAF8080021462D6100F01F
:104C90003DFADAF80800016821B3C068C568D0F8A9
:104CA00000802C1D204600F0F3F9696A28468847E9
:104CB000E8690128EDD1A86940444045E2D8DAF816
:104CC0000000002872D0CDE904B8069501F07CF907
:104CD000DAF8000049460022002300F041FE0028D7
:104CE000D7D163E0DAF80C10E846CAE90210009860
:104CF000CAF8107009289DD80121814011F0C70F12
:104D000010D0019AB0693146831841F8043FBB4284
:104D100036611DD997420AF10800BFF487AF93426C
:104D20001AD283E711F4047F34D001980028B061CF
:104D30005AD0384431460AF10C0241F8040F36616A
:104D4000B84288BF0AF10802106800F0DFF971E785
:104D5000BA1A8242FFF468AF716A30468847F06938
:104D600001287FF467AFDAF80000002832D00198FC
:104D7000B16906960844CDE904B001F025F9DAF8E6
:104D8000000049460022002300F0EAFD00287FF4DD
:104D900051AF1FE005287FF44DAF96F82C00002896
:104DA0007FF448AF304600F02DFA43E74FF0500053
:104DB00080F31188BFF36F8FBFF34F8FFEE700BF03
:104DC0004FF0500080F31188BFF36F8FBFF34F8F08
:104DD000FEE700BF4FF0500080F31188BFF36F8FE4
:104DE000BFF34F8FFEE700BF4FF0500080F31188F4
:104DF000BFF36F8FBFF34F8FFEE700BF4FF0500040
:104E000080F31188BFF36F8FBFF34F8FFEE7000071
:104E1000F0B581B0044600F0B9F994F94560012E6F
:104E20000FDB04F1240500BF286850B1284601F0CB
:104E3000A5F9002818BF00F031FBF0B2013E0128AF
:104E4000F2D8FF2684F8456000F0C4F900F09EF91E
:104E500094F94470012F0EDB04F11005286850B15D
:104E6000284601F08BF9002818BF00F017FBF8B2B4
:104E7000013F0128F2D884F8446001B0BDE8F04059
:104E800000F0A8B970B5044600F0FEFB40F2181C13
:104E9000C2F2000CDCF8040050B19CF800000028BD
:104EA00018BF4FF000404FF0000554BB85E000BF35
:104EB00041F2EC30C2F20000420700F5406200F11E
:104EC000070122F0070218BF21F007000021A2F11C
:104ED0000803CCF81000CCF81410CCF8043042E9E8
:104EE0000211DCF80420191AC0E9002101208CF815
:104EF00000004FF00040CCE90211002C4FF00005FB
:104F00005BD0204059D124F0070000F11002600767
:104F100008BF04F10802DCF80800511E81424CD29F
:104F2000604650F810EFDEF8045095422BD2DEF8C0
:104F30000010B9B174464D68954217D20B68ABB1F9
:104F40005D68954216D21868A0B14568954215D2A1
:104F500004689CB16568954214D22168A646002970
:104F6000E9D110E00CF110000DE000BF8E462046A4
:104F700009E000BF9E46084605E000BF8646184689
:104F800001E000BFA646DCF804108E4514D001688D
:104F9000DEF80040AB1A112B04604CD30EEB020577
:104FA000680719D04FF0500080F31188BFF36F8F5E
:104FB000BFF34F8FFEE700BF002501F019F9680726
:104FC00054D04FF0500080F31188BFF36F8FBFF3C0
:104FD0004F8F00BFFEE700BF0CF110006B60CEF8F2
:104FE000042000BF0368AB420AD21868A8420BD263
:104FF0000368AB4204D218681A46A842F2D304E010
:105000000246184601E000BF1A4654686B6816193C
:10501000AE4202D1234415465360EC18844206D1B7
:10502000DCF80440A04202D011C823446B60AA42BD
:10503000286018BF1560DEF80400DCE9022301F1E6
:105040000805111A9942CCF8081038BFCCF80C109A
:105050009CF8001000294FF0000118BF40F00040FC
:10506000CEE9001001F0C4F86807AAD1284670BD47
:10507000034644F68120C0F600004FF0807C21F00A
:10508000010103E90310A3F1400043F8202C70470D
:10509000D0E9013201699A60D1F804C08268844580
:1050A000536008BF4A600022026108680138086046
:1050B0000868704740F26033C2F20003036040F2B8
:1050C0006010C2F20000086080201060704700008D
:1050D00040F64443C2F20003036040F64400C2F2CB
:1050E000000008604FF48070106070474FF0FF318F
:1050F000024642F8081F00214260C0E90322016015
:1051000070470000002101617047000010B5D1F820
:1051100000E01EF1010213D000F108046268136878
:10512000734511D853681C68744511D85A681468BF
:1051300074450FD854682368A4467345EED90BE034
:105140000269D2F804C007E09446224604E000BF9A
:105150009C4601E094461A46C1F804C0CCF80810F9
:105160008A605160086101680131016010BD000072
:10517000D0F800C0436808619A684B608A609A68FA
:10518000996051600CF10101016070474FF05000CF
:1051900080F31188BFF36F8FBFF34F8F40F2380059
:1051A000C2F2000001684A1C026009B1704700BFEA
:1051B0004EF60450CEF200000068000608BF7047AB
:1051C0004FF0500080F31188BFF36F8FBFF34F8F04
:1051D000FEE7000040F23800C2F20000016839B179
:1051E0000139016018BF7047002080F311887047B3
:1051F0004FF0500080F31188BFF36F8FBFF34F8FD4
:10520000FEE7000070B5002808BF70BD40F2181618
:10521000C2F200060446307854F8041C002818BF77
:105220004FF0004008420DD0A4F108052A689AB159
:105230004FF0500080F31188BFF36F8FBFF34F8F93
:10524000FEE700BF4FF0500080F31188BFF36F8F6F
:10525000BFF34F8FFEE700BF21EA000044F8040CC3
:1052600000F012FA54F8041CB0680844B06006F16B
:10527000100000BF0368AB420AD21868A84221D2CE
:105280000368AB4204D218681A46A842F2D301E080
:10529000024618465368D418AC4202D11944154648
:1052A00051606B18834205D17368984202D009C8D7
:1052B00019446960AA42286018BF1560BDE87040B3
:1052C00000F096BF1A465368D418AC42E9D1E5E71E
:1052D0004EF21000CEF2000000210160816040F229
:1052E0000C01C2F20001096844F6D352C1F2620215
:1052F000A1FB02124FF0FF3101EB92114160072137
:105300000160704741F6F07CC2F2000CDCF800202E
:1053100022B3634653F8082F42B3634653F8102F65
:1053200052B3634653F8182F62B3634653F8202FE5
:1053300072B3634653F8282F82B3634653F8302F75
:1053400092B3634653F8382F002A18BF70470722DC
:1053500019600CEBC2014860704700BF0022634631
:1053600019600CEBC2014860704700BF0122196050
:105370000CEBC20148607047022219600CEBC201BD
:1053800048607047032219600CEBC2014860704707
:10539000042219600CEBC2014860704705221960B5
:1053A0000CEBC20148607047062219600CEBC20189
:1053B0004860704770B515460E460446FFF7E6FE96
:1053C00094F84400FF2804BF002084F8440094F8B7
:1053D0004500FF2804BF002084F84500FFF7FAFECF
:1053E000A06B28B12046BDE87040FFF711BD00BF9B
:1053F00004F1240031462A4600F092F82046BDE828
:105400007040FFF705BD000070B588B340F2640539
:10541000C2F200050446686950B14FF0500080F3B5
:105420001188BFF36F8FBFF34F8F00BFFEE700BF40
:10543000686901306861AE6928680430FFF728FEAA
:105440002868A419446005D3286A29680431FFF745
:105450005DFE08E0E86929680431FFF757FEE86A55
:10546000844238BFEC6200F0C3FE002818BF70BD54
:105470004EF60450CEF200004FF080510160BFF3B1
:105480004F8FBFF36F8F70BD40F26401C2F2000115
:105490008A6B0260896941607047000040F26400D5
:1054A000C2F20000012101637047000070B5D8B15D
:1054B00040F26404C2F200040D4621681831FFF77F
:1054C00025FEA66920680430FFF7E2FD681C15D0B0
:1054D0002068AD19456019D3206A21680431BDE800
:1054E0007040FFF713BE00BF4FF0500080F31188EB
:1054F000BFF36F8FBFF34F8FFEE700BF54F8500B21
:10550000011D2046BDE87040FFF732BEE06921680A
:105510000431FFF7FBFDE06A854238BFE56270BDEC
:10552000F0B581B0C0B140F26404C2F200040D468F
:10553000216816461831FFF71BFEA7692068043062
:10554000FFF7A6FD96B154F8500B011D204601B09F
:10555000BDE8F040FFF70CBE4FF0500080F311881B
:10556000BFF36F8FBFF34F8FFEE700BF2068ED19C9
:10557000456007D3206A2168043101B0BDE8F040DE
:10558000FFF7C4BDE06921680431FFF7BFFDE06AA1
:10559000854238BFE56201B0F0BD000010B588B0AB
:1055A0000020CDE9050006A805A904AAFFF782FDA1
:1055B000059800283CD0069C002C43D05C21049A1E
:1055C000079107995C2947D12063022084F859008C
:1055D00007A80021CDE9001044F6C100C0F6000084
:1055E00027A100230294FFF7AFF92046FFF722F826
:1055F000079840F26404C2F20004A062B0B100F067
:105600006FFE411C32D0012810D14FF0500080F3C2
:105610001188BFF36F8FBFF34F8F4FF0FF30E06201
:10562000012020610020A06100F094F808B010BDB6
:105630004FF0500080F31188BFF36F8FBFF34F8F8F
:10564000FEE700BF4FF0500080F31188BFF36F8F6B
:10565000BFF34F8FFEE700BF4FF0500080F311887B
:10566000BFF36F8FBFF34F8FFEE700BF4FF05000C7
:1056700080F31188BFF36F8FBFF34F8FFEE700BF3A
:1056800049444C450000000040F26400C2F20000B2
:10569000416901314161704780B540F2640EC2F248
:1056A000000EDEF8141019B10121CEF8301080BDC3
:1056B0000021CEF83010DEF8241040F68C7C01EB8F
:1056C0008103C2F2000C5CF823208AB101EB810255
:1056D0000CEB820353F8042F5268181D82421A60A3
:1056E00020D0D068CEF80000CEF8241080BD00BFD6
:1056F0000CEB8302A2F12803E1B15A6922BB012914
:1057000018D01A6812BB022914D053F8142CFAB915
:1057100003290FD053F8282C0439002AA3F1500391
:10572000EAD0D3E752681A60D068CEF80000CEF80D
:10573000241080BD4FF0500080F31188BFF36F8FAD
:10574000BFF34F8FFEE700BF0139BFE70239BDE766
:105750000339BBE7B0B584B04EF2004CCEF2000C7A
:105760009CF800100291FF218CF800109CF80010AA
:105770008DF807109DF8071001F0500240F230112B
:10578000C2F200010A7007224A609DF90720B2F1B7
:10579000FF3F61DC032200BFD31C4B609DF8070074
:1057A00040008DF807009DF90700B0F1FF3F24DCB1
:1057B000931C4B609DF8070040008DF807009DF991
:1057C0000700B0F1FF3F18DC531C4B609DF8070049
:1057D00040008DF807009DF90700B0F1FF3F0CDC99
:1057E0004A609DF80700043A40008DF807009DF9D3
:1057F0000700B0F1FF3FCFDD131D032B2CD14FF479
:105800004070486002988CF80000DCF8200940F4F1
:105810007000CCF82009DCF8200940F07040CCF88A
:105820002009FFF755FD40F23804C2F200040025BC
:105830002560FFF715F9FFF72FFF039520684FF05C
:10584000500181F31188BFF36F8FBFF34F8F013089
:1058500012D000BFFEE700BF4FF0500080F3118868
:10586000BFF36F8FBFF34F8FFEE700BF039830B9D0
:10587000039820B9039810B903980028F6D00020A7
:1058800004B0B0BD70B582B070B11C46B3B1F9B907
:10589000F2B14FF0500080F31188BFF36F8FBFF368
:1058A0004F8F00BFFEE700BF4FF0500080F311881C
:1058B000BFF36F8FBFF34F8FFEE700BF4FF0500075
:1058C00080F31188BFF36F8FBFF34F8FFEE700BFE8
:1058D00051B14AB94FF0500080F31188BFF36F8F78
:1058E000BFF34F8FFEE700BF50230193019B502B66
:1058F0002CD1069E012384F84630002908BF224699
:105900002260C4E90F01FFF741FC2068D4E90F12BF
:10591000002502FB0103013901FB0201A563C4E973
:105920000130FF20E16084F8440084F8450004F170
:105930001000FFF7DBFB04F12400FFF7D7FBFFF7B4
:1059400049FC204684F84C6002B070BD4FF0500016
:1059500080F31188BFF36F8FBFF34F8FFEE7000016
:105960002DE9F04F83B00292C0B11D4617460E4696
:105970000446E9B1022D02D1E06B01285AD100F0B2
:1059800023FB18BB17B34FF0500080F31188BFF30F
:105990006F8FBFF34F8F00BFFEE700BF4FF0500087
:1059A00080F31188BFF36F8FBFF34F8FFEE700BF07
:1059B000206C0028DED04FF0500080F31188BFF338
:1059C0006F8FBFF34F8F00BFFEE700BFFFF7DEFB17
:1059D000A06B022D65D0E16B884262D3029800284B
:1059E00000F016816846FFF74FFDFFF7F3FBFFF766
:1059F0004BFEFFF7CBFB94F84400FF2804BF0020C8
:105A000084F8440094F84500FF2804BF002084F87F
:105A10004500FFF7DFFB684602A900F01FFA98B1C6
:105A20002046FFF7F5F900F0E3FB002003B0BDE8E6
:105A3000F08F00BF4FF0500080F31188BFF36F8FDD
:105A4000BFF34F8FFEE700BF04F11008FFF79EFB86
:105A5000D4F83890E76BFFF7BDFBB94516D1029932
:105A60004046FFF723FD2046FFF7D2F900F0C0FBC8
:105A700088B94EF60450CEF200004FF0805101601C
:105A8000BFF34F8FBFF36F8F05E000BF2046FFF7D6
:105A9000BFF900F0ADFBFFF779FBA06BE16B88422B
:105AA00064D2A76B226CDAB125B3E0683146FAF70D
:105AB00039FBE168206C2268091A9142E16003D247
:105AC000616840420844E060A81EB0FA80F04009D6
:105AD0003946002F18BF012108403F1A17E000BFC8
