:020000040800F2
:10000000801F00200101000895290008CD26000866
:10001000912900089D0100081D2F00080000000024
:10002000000000000000000000000000F1290008AE
:10003000B901000800000000A1290008192A0008E1
:100040001B0100081B0100081B0100081B01000820
:100050001B0100081B0100081B0100081B01000810
:100060001B0100081B0100081B0100081B01000800
:100070001B0100081B0100081B0100081B010008F0
:10008000A1010008AD0100081B0100081B010008C8
:100090001B0100081B0100081B0100081B010008D0
:1000A0001B0100081B0100081B0100081B010008C0
:1000B0004D2A00081B0100081B0100081B01000855
:1000C0001B0100081B0100081B0100081B010008A0
:1000D0001B0100081B010008112F00081B0100086C
:1000E0001B0100081B0100081B010008DFF80CD0F1
:1000F00000F03CF800480047412F0008801F002016
:100100000648804706480047FEE7FEE7FEE7FEE7B1
:10011000FEE7FEE7FEE7FEE7FEE7FEE7492A000806
:10012000ED00000840EA01039B0703D009E008C97D
:10013000121F08C0042AFAD203E011F8013B00F8AC
:10014000013B521EF9D27047D2B201E000F8012BF8
:10015000491EFBD270470022F6E710B513460A4647
:1001600004461946FFF7F0FF204610BD1CB50948AC
:100170000090094801900546009C06E0E06840F0C8
:10018000010394E8070098471034AC42F6D3FFF718
:10019000B1FF0000E84F000808500008FEE700002B
:1001A00040F2F070C2F2000000F016B940F63400E0
:1001B000C2F2000000F010B970470000EFF31080A9
:1001C00072B600BFFEE7000040F21805C2F200055B
:1001D00040F6A41444F6BD7B4FF00209C2F20004BD
:1001E000C0F6000B05F10C0840F6B83A062602E00E
:1001F000002028706E7085F8019000F059FB0746CA
:10020000204659460C2202F001FA204641461422AB
:1002100001F0A2FB287850B900F04AFBC01B504502
:10022000E6D80A2002F0D8FE28780028F4D0012869
:10023000E0D12E464FF4407026F80C0B00F038FB4E
:1002400044F6A97107462046C0F600010D2202F0CF
:10025000DDF9204631461422062601F07DFB287880
:1002600058B900BF00F024FBC01B5045C0D80A207D
:1002700002F0B2FE28780028F4D00128BAD1A946AD
:100280004FF4806029F80C0B00F012FB44F6D1719A
:1002900007462046C0F60001112202F0B7F92046B9
:1002A000494614224FF0020901F056FB287850B954
:1002B00000F0FEFAC01B50459AD80A2002F08CFECE
:1002C00028780028F4D0012894D14FF4A060288029
:1002D00001A004F027FE8EE76F6B0000014690F846
:1002E0002100022816D10868D1E90FC3026822F064
:1002F0000E020260026822F001020260012000FA90
:1003000003F2CCF8042081F821000020002281F8BB
:1003100020207047042088630120002281F82020DB
:100320007047000090F82110022923D1026811685B
:1003300021F00E0111602F211368C4F202018A42DC
:1003400040F20401C4F2020123F00103136015DD41
:100350003023C4F202039A421CD04423C4F20203A5
:100360009A421BD05823C4F202039A421CD14FF484
:10037000803321E004218163012070470823C4F207
:1003800002039A420ED01C23C4F202039A420BD1FC
:10039000102311E04FF480730EE000BF4FF4805340
:1003A0000AE000BF012307E001F1680C4FF0807301
:1003B000624508BF4FF480130B60012180F82110C3
:1003C000426B002180F8201022B180B590470021B7
:1003D000BDE880400846704710B5D0E90FCE0168EF
:1003E000DCF800300A6823FA0EF35C072AD512F015
:1003F000040427D00A68920603D40A6822F0040293
:100400000A602F22C4F20202914240F20402C4F2B6
:1004100002025BDD3023C4F20203994272D044230E
:10042000C4F20203994273D05823C4F202039942E2
:1004300040F07A804FF480231360C16A002940F0B5
:1004400098806FE09C0727D512F0020424D00A6838
:10045000920606D40A6822F00A020A60012280F895
:1004600021202F22C4F20202914240F20402C4F27F
:1004700002023BDD3023C4F20203994260D04423E0
:10048000C4F2020399425FD05823C4F20203994296
:1004900060D14FF4003365E01B0743D512F008022A
:1004A00008BF10BD0A6822F00E020A60012101FA9D
:1004B0000EF2CCF80420816380F82110016B002239
:1004C000002980F8202054D12CE000BF0823C4F27A
:1004D0000203994222D01C23C4F20203994223D181
:1004E00040231360C16A002943D11BE00823C4F2F2
:1004F000020399422CD01C23C4F20203994229D151
:1005000020232FE04FF480631360C16A89BB09E0A8
:100510004FF480431360C16A59BB03E004231360A6
:10052000C16A31BB10BD00BF02F168044FF08063A7
:10053000A14208BF4FF480031360C16AC9B9F1E753
:100540004FF400730EE000BF4FF400530AE000BF09
:10055000022307E002F168044FF00073A14208BFD4
:100560004FF400131360816A0022002980F82020D4
:10057000D8D0BDE810400847014600284FF00100E0
:1005800008BF70472DE9F0470A684FF6F873CBF6BD
:10059000FD7302EB030C4CF6CD43CCF6CC43ACFB25
:1005A000033C6FF00307002607EA9C07C4F202062B
:1005B00001F10C0AC1E90F670227D1E9013E9AE86F
:1005C0003004D1E9069881F82170176843F6F07677
:1005D000B7433B4343EA0E0323432B4343EA0A0357
:1005E00043EA090343EA0803136000228A6381F89F
:1005F000210081F820200020BDE8F047704700006E
:1006000090F820C0BCF1010F04BF02207047F0B584
:100610004FF0010E80F820E090F821C0BCF1010FEE
:1006200026D14FF0020C80F821C04FF0000CC0F82A
:1006300038C0D0E900C4C56AC66BDCF80070102C65
:1006400027F00107CCF80070006C0EFA00F0706023
:100650000846CCF8043004BF10460A46CCF808001F
:10066000CCF80C20DCF8000045B140F00E000DE0A5
:10067000002180F820100220F0BD00BF20F004000F
:10068000CCF80000DCF8000040F00A00CCF80000D4
:10069000DCF8000040F00100CCF800000020F0BDC4
:1006A0002DE9F04F82B00E68002E00F0FD8041F27F
:1006B0000042C4F20102042340F2004E904208BFFF
:1006C00003234FF6FF7CC4F2010E009300240123A4
:1006D000C1F2100C4FF0000A4FF0000944E000BFD7
:1006E000012704F00C030F229A402BEA020207FABA
:1006F00003F34FEA9A051A4346F825204E6840F264
:100700000C45F202DEF8082054BF22EA080242EA51
:100710000802C4F20105CEF808202A68B30254BFCB
:1007200022EA080242EA08022A60B303DEF8042043
:1007300054BF22EA080242EA0802F303CEF804207A
:10074000DEF800204FF0010354BF22EA080242EA1B
:100750000802CEF800200E680AF1010A36FA0AF201
:1007600004F1040400F0A08003FA0AFB16EA0B0867
:10077000F1D04E68664511DC122E55D8DFE806F040
:10078000340A4448545454545454545454545454AF
:10079000544C5000D1F80C9046E000BF4FF6FF7269
:1007A000C1F2210296420FDC0022C1F211029642F0
:1007B0001AD00022C1F21202964215D00022C1F2D4
:1007C0002102964210D02FE00022C1F2220296426E
:1007D0000AD00022C1F23102964205D00022C1F2B5
:1007E0003202964220D100BF8A684AB1012A14BF62
:1007F000C0F814B0C0F810B04FF0080914E000BF02
:100800004FF0040910E000BFCA6802F108090BE0CC
:100810004FF0000908E000BFCA6802F1040903E0D4
:10082000CA6802F10C0900BF22460646B8F5807F6F
:1008300024BF203A043637680F25954027EA05057E
:1008400009FA02F22A433260CA79D2067FF583AFF1
:1008500041F21803C4F202031A68AEF57E7642F044
:1008600001021A601A6802F001020192019A2AF04C
:10087000030256F802B040F60002C4F201029042B0
:1008800010D040F60042C4F2010290423FF428AF7B
:1008900041F20002C4F20102009F904208BF022709
:1008A0001FE700BF00271CE702B0BDE8F08F000083
:1008B00041F63C30C2F2000000687047002804BFD7
:1008C00001207047F0B581B0044690F83D0028B98A
:1008D000002084F83C00204600F0A2F8242084F890
:1008E0003D002068016821F001010160016841F4C8
:1008F00000410160016821F40041016000F0BAFA92
:10090000636848F2A16CC0F2010C40F60011C0F21D
:100910003D0163453CBF48F28041C0F21E01884260
:1009200002D2012001B0F0BD4DF68361C4F21B314B
:10093000A0FB01122168970CD1F804E04FF49676E1
:100940002EF03F0545EA92454D60774348F638164C
:100950000D6AC0F24106A7FB067625F03F07634506
:1009600038BF960C721C3A430A62CA6948F2A06604
:100970004CF6FF77C0F20106B34222EA07020BD819
:1009800001385B00B0FBF3F001306FF31F30042837
:1009900098BF04201BE000BFA768013857B1192792
:1009A0007B43B0FBF3F001306FF31F3070B100F503
:1009B000804007E003EB4303B0FBF3F001306FF33B
:1009C0001F3018B100F5004001E000BF01201043C6
:1009D000C8610868D4E9072320F0C0001043184319
:1009E0000860886848F2FF3204F10C0790438CCF0E
:1009F00018431043A6698860C86820F0FF00384398
:100A00003043C860086840F00100086000202021E1
:100A1000206484F83D10206384F83E0001B0F0BDEE
:100A200010B586B045F200410068C4F20001002212
:100A30008842049202D006B010BD00BF41F21804F3
:100A4000C4F20204206840F008002060206800F032
:100A5000080001900198C02002901220039003200A
:100A6000059001F5384002A9FFF71AFE606840F4CE
:100A700000106060606800F400100190019806B0FA
:100A800010BD000040F2040041F63C31C2F200000B
:100A9000C2F2000100780A68104408607047000044
:100AA00080B542F20000C4F20200016841F010017A
:100AB0000160032000F0CAF80F2000F005F800F0F4
:100AC0005FF8002080BD0000B0B586B041F21C0187
:100AD000C4F202010A68044642F001020A60096891
:100AE00001A801F0010101910199694600F0A0F906
:100AF000049D002D18BF012500F0BCF94DF683615F
:100B0000A840C4F21B31A0FB01014FF0FF3000EB05
:100B1000914140F6CC00C2F200004FF0804240F21A
:100B2000E7330025C0E90021C0E902530561856172
:100B300000F00CFC054618B1284606B0B0BD00BF59
:100B400040F6CC00C2F2000000F078FC0546002818
:100B5000F2D11C2000F03CF80F2C0DD81C202146AF
:100B60000022002500F046F840F20800C2F2000022
:100B70000460284606B0B0BD0125284606B0B0BDC9
:100B800080B582B041F21800C4F202000168002270
:100B900041F001010160016801F001010191019939
:100BA000416841F08051416040680F2100F0805061
:100BB000009000986FF0010000F01CF80420C4F2CF
:100BC00001000168022262F31A61016002B080BD77
:100BD000002848BF704700F01F01012202FA01F10E
:100BE0001C2202EAD0004EF20012CEF20002815026
:100BF0007047000010B54EF60C5CCEF2000CDCF82D
:100C00000030C3F3022E8EF00704042C28BF042406
:100C1000BEF103034FF0FF3E0EFA04F438BF002389
:100C2000A14399400EFA03F39A43114300F00F02D7
:100C300000F160430901043A03F56443624400286B
:100C400048BF02F10C03197010BD00004EF60C51A4
:100C5000CEF200010A684FF6FF031A4060F30A2241
:100C600042F0806040F0FD7008607047002804BFCB
:100C7000012070472DE9F04381B042F20008C4F230
:100C800002080446D8F800000D4600F0070088422C
:100C90000CD2D8F8000020F007002843C8F8000064
:100CA000D8F8000000F00700A8426CD1206841F29B
:100CB00004098107C4F2020917D5410705D5D9F8FF
:100CC000001041F4E061C9F80010010705D5D9F81A
:100CD000001041F46051C9F80010D9F80010A26862
:100CE00021F0F0011143C9F80010C00742D1D8F833
:100CF000000000F00700A8420CD9D8F8000020F04E
:100D000007002843C8F80000D8F8000000F00700EA
:100D1000A84238D12068410707D5D9F80010E26809
:100D200021F4E0611143C9F80010000708D5D9F893
:100D30000000216920F4605040EAC100C9F80000B9
:100D4000D9F8002002F00C00082841F20020C0F27F
:100D50007A0051D144F66273C2F38341C0F60003B6
:100D6000595CD2033CD440F60010C0F23D00484329
:100D700042E000BF606802280AD001282AD159F851
:100D8000041C890308D4012001B0BDE8F08300BF32
:100D900059F8041C8901F6D5D9F8001021F0030197
:100DA0000843C9F80000FFF783FD064641F2883783
:100DB000D9F80000616800F00C00B0EB810F96D00C
:100DC000FFF776FD801BB842F2D9032001B0BDE8E1
:100DD000F08300BF59F8041C8907D4D5DCE700BFB5
:100DE000D9F8002044F66073C2F34042C0F6000315
:100DF0009A5C4843B0FBF2F0D9F8001044F6487210
:100E0000C1F30311C0F60002515C40F20C0220FA5B
:100E100001F140F20800C2F200000068C2F20002D4
:100E20001160FFF751FE002001B0BDE8F083000023
:100E30000F22026041F20402C4F20202136803F0BE
:100E400003034360136803F0F0038360136803F443
:100E5000E063C36012684FF4E06303EAD202026108
:100E600042F20000C4F20200006800F007000860CF
:100E70007047000040F20C0041F20401C2F2000091
:100E8000C4F202010068096844F65872C1F30221F5
:100E9000C0F60002515CC8407047000040F20C00F0
:100EA00041F20401C2F20000C4F2020100680968C4
:100EB00044F65872C1F3C221C0F60002515CC8402A
:100EC00070470000002804BF012070472DE9F04161
:100ED00082B00446007841F20006C007C4F2020660
:100EE0000CD0706800F00C00042840F0818030685D
:100EF000800303D56068002800F04E8120788007C9
:100F00001BD5706810F00C0F09D0706800F00C0051
:100F1000082840F08B807068C00300F1878030683B
:100F2000800703D52069012840F036813068616967
:100F300020F0F80040EAC10030602078000713D4A8
:100F4000207840072CD4E569002D00F020817068DE
:100F500000F00C00082840F0AF80012D40F00C811B
:100F6000012002B0BDE8F081A069002800F08C806B
:100F70000020C4F242200121C0F88014FFF798FC41
:100F8000054600BF706A800700F1BA80FFF790FC49
:100F9000401B0228F6D9032002B0BDE8F08100BF53
:100FA000F0695FEAC00808D4F06940F08050F06151
:100FB000F06900F080500090009847F20007C4F2FA
:100FC00000073868C0054DD4386840F48070386038
:100FD000FFF76EFC054600BF3868C00542D4FFF736
:100FE00067FC401B6428F7D9032002B0BDE8F081FC
:100FF000706800F00C00082803D17068C0033FF54A
:1010000076AF6068002800F00981B0F5A02F00F0ED
:101010001D81B0F5803F00F01D81306820F48030E4
:101020003060306820F4802017E100BF206900287C
:1010300040F20000C4F2422000F08C8001210160E7
:10104000FFF736FC054600BF306880073FF56EAFFE
:10105000FFF72EFC401B0228F6D9032002B0BDE8A2
:10106000F08100BFE068002800F09A80052800F0B9
:10107000B180012800F0B280306A20F001003062B7
:10108000306A20F00400ACE00020C4F242200021CD
:10109000C0F88014FFF70CFC054600BF706A80079B
:1010A0007FF54EAFFFF704FC401B0228F6D9032062
:1010B00002B0BDE8F08100BF0027C4F24227002043
:1010C0003866FFF7F5FB022D05460DD1306880012B
:1010D00040F1D680FFF7ECFB401B02284FF00300E5
:1010E000F4D902B0BDE8F081306880014FD5FFF738
:1010F000DFFB401B02284FF00300F5D9F1E700BFEA
:1011000040F20C00C2F20000006844F6D351C1F274
:101110006201A0FB0101480A019000BF00BF0198D5
:10112000411E002801913FF40BAF00BF0198411E02
:10113000002801913FF404AF00BF0198411E002830
:1011400001913FF4FDAE00BF0198411E00280191BE
:10115000E4D1F5E600210160FFF7AAFB054600BFD8
:10116000306880077FF5E9AEFFF7A2FB401B02283D
:101170004FF00300F4D9B4E77068216A00F48032BC
:101180008A4209D1616A00F47010884204D10020BB
:1011900002B0BDE8F08100BF012002B0BDE8F081DF
:1011A000306A20F001003062306A20F004003062C2
:1011B000FFF77EFB054641F2883700BF306A8007A3
:1011C00022D5FFF775FB401BB8424FF00300F5D95D
:1011D00087E700BF306A40F004003062306A40F0B8
:1011E00001003062FFF764FB054641F2883700BF1B
:1011F000306A800708D4FFF75BFB401BB842F7D981
:10120000032002B0BDE8F081B8F1000F3FF59BAEBE
:10121000F06920F08050F06195E600BF306820F45E
:1012200080303060306820F480203060FFF740FB71
:10123000054600BF306880037FF560AEFFF738FBDE
:10124000401B64284FF00300F4D94AE7306840F4AB
:1012500080203060306840F480303060FFF728FB39
:10126000054600BF306880033FF548AEFFF720FB1E
:10127000401B6428F6D9032002B0BDE8F08100BF0E
:10128000206AB0F5803F05D17168A26821F4003171
:10129000114371607168626A21F47411114308434B
:1012A000706001203866FFF703FB04463068800158
:1012B0003FF56DAFFFF7FCFA001B02284FF003006B
:1012C000F4D90EE7704700007047000090F83C200A
:1012D000012A4FF0020236D010B580F83D20026896
:1012E000D2F804E0D2F808C00C682EF07003234353
:1012F00040F2FF74C4F20004A24253600ADCB2F16F
:10130000804F13D040F20043C4F200039A420DD044
:1013100011E000BF42F60043C4F201039A4205D037
:1013200040F60003C4F200039A4204D149682CF04D
:101330008003194391600121002280F83D1080F85C
:101340003C20BDE81040104670470000002804BF54
:101350000120704710B5044690F83D0028B90020E0
:1013600084F83C00204600F067F8022084F83D0035
:10137000206840F2FF730268C4F2000342F6004C9A
:101380009842C4F2010C15DCB0F1804F1AD040F243
:101390000041C4F20001884214D0984218DCB0F138
:1013A000804F1DD040F20041C4F20001884217D0A6
:1013B0001AE000BF604505D040F60001C4F200010C
:1013C0008842EAD1A16822F070020A439842E6DD21
:1013D000604505D040F60001C4F20001884203D107
:1013E000216922F440720A43A36922F08001D4F8F3
:1013F00004E0E268194360450160C262C0F828E079
:1014000002D16169CCF8301001214161002084F8DB
:10141000461084F83E1084F83F1084F8401084F899
:10142000411084F8421084F8431084F8441084F882
:10143000451084F83D1010BD7047000090F83D1035
:1014400001291CBF01207047022180F83D1000686F
:1014500040F2FF72C168C4F20002904241F0010103
:10146000C16009DCB0F1804F12D040F20041C4F2FB
:10147000000188420CD012E042F60041C4F20101A2
:10148000884205D040F60001C4F20001884206D12E
:10149000816801F00701062904BF00207047016838
:1014A00041F001010160002070470000704700001A
:1014B00010B5016804460869800744BFC8685FEA40
:1014C000807039D40869400744BFC8685FEA40703B
:1014D0003ED40869000744BFC8685FEA007045D47D
:1014E0000869C00644BFC8685FEAC0604AD408699A
:1014F000C0071CBFC8685FEAC07051D10869000608
:1015000044BFC8685FEA006052D40869400644BF1F
:10151000C8685FEA406053D40869800646BFC8685F
:101520005FEA806010BD6FF0200220460A61BDE8CE
:101530001040FFF7C9BE00BF6FF002000861012034
:1015400020778869800743D02046FFF7AFFF45E04A
:101550006FF00400086102202077886910F4407F52
:1015600040D02046FFF7A2FF42E000BF6FF0080026
:10157000086104202077C86980073DD02046FFF726
:1015800095FF3FE06FF01000086108202077C869E0
:1015900010F4407F3AD02046FFF788FF3CE000BFC0
:1015A0006FF001000861204600F0CCF92168A5E742
:1015B0006FF0800008612046FFF784FE2168A4E7F1
:1015C0006FF040000861204600F0C4F92168A3E7ED
:1015D000204600F025F8204600F0B2F921680020EE
:1015E00020776FE7204600F01BF8204600F0A8F9AE
:1015F0002168002020776CE7204600F011F8204693
:1016000000F09EF921680020207769E7204600F06D
:1016100007F8204600F094F921680020207766E75B
:101620007047000090F83C30012B04BF0220704747
:101630004FEAB202032A3DD82DE9F043DFE802F079
:1016400002407CB6036842F600461D6A1A6AC4F27C
:10165000010622F001021A621A465C6852F818CF9D
:10166000B3428E68D1F800E025F0020545EA060590
:101670000CD1CE68D1E9057824F4407425F00C052E
:1016800026F004063C43354344EA08042CF0730773
:1016900047EA0E075C609F614F6809695F631D62DE
:1016A0009F6947F008079F619F6927F004079F61C2
:1016B000ACE000BF0121002280F83C2008467047C2
:1016C000036842F600461D6A1A6AC4F2010622F057
:1016D00010021A621A46D3F804C052F8184FB342E7
:1016E0008E68D1F800E025F0200545EA06150FD1F7
:1016F000CE68D1E905986FF0400725F0C00507EAEC
:10170000061635432CF4406748EA090647EA860C7A
:1017100024F4E64444EA0E27C3F804C09F614F68EE
:1017200009699F631D629F6947F400679F619F6914
:1017300027F480679F6168E0036842F600461D6AEF
:101740001A6AC4F2010622F480721A621A46D3F8A9
:1017500004C052F81CEFB3428E680C6825F4007583
:1017600045EA06250FD1CE68D1E90598360240F248
:10177000FF4725F44065BE4335432CF4405748EA03
:10178000090647EA061C2EF073072743C3F804C076
:10179000DF614F680969DF631D62DF6947F0080791
:1017A000DF61DF6927F00407DF612FE0036842F69D
:1017B0000047D3F820C01A6AC4F2010722F480520D
:1017C0001A621A465C6852F81C5FD1F800E08E6815
:1017D000BB4204D14F6924F4804444EA87142CF4BA
:1017E000005747EA063725F4E64646EA0E265C60CF
:1017F000DE614E6809691E641F62DF6947F4006795
:10180000DF61DF6927F48067DF610902136819432C
:1018100011600021BDE8F043002280F83C2008461A
:1018200070470000002804BF0120704710B504462F
:1018300090F83D0028B9002084F83C00204600F0D4
:1018400067F8022084F83D00206840F2FF730268C8
:10185000C4F2000342F6004C9842C4F2010C15DCBD
:10186000B0F1804F1AD040F20041C4F2000188422A
:1018700014D0984218DCB0F1804F1DD040F20041E6
:10188000C4F20001884217D01AE000BF604505D0BD
:1018900040F60001C4F200018842EAD1A16822F0BA
:1018A00070020A439842E6DD604505D040F600012B
:1018B000C4F20001884203D1216922F440720A4334
:1018C000A36922F08001D4F804E0E268194360457E
:1018D0000160C262C0F828E002D16169CCF8301022
:1018E00001214161002084F8461084F83E1084F8FC
:1018F0003F1084F8401084F8411084F8421084F8B6
:10190000431084F8441084F8451084F83D1010BD4D
:10191000006840F20041C4F20001884218BF7047DD
:1019200081B041F21C00C4F20200016841F00201E2
:101930000160006800F002000090009801B070475C
:10194000704700000068B0F1804F18BF7047FFF784
:1019500099B800007047000070B582B0044690F856
:10196000420020280AD113460A4600294FF0010000
:1019700018BF002B06D102B070BD00BF022002B01C
:1019800070BD00BF2063002522206563A262A3858D
:10199000656484F842002168E06B42F6E13C42F65F
:1019A000415E42F66526C0F6000CC0F6000EC0F699
:1019B00000060431C0E90ACEC0E90C65FEF720FE3E
:1019C00001952068016801914068019001982069A3
:1019D00030B300BF206850E8030F216840F48070E6
:1019E00041E80302E2B1206850E8030F216840F4A7
:1019F000807041E803029AB1206850E8030F216823
:101A000040F4807041E8030252B1206850E8030FAF
:101A1000216840F4807041E80302002ADAD100BF57
:101A2000206850E8050F216840F0010041E80502F8
:101A3000BAB3206850E8050F216840F0010041E882
:101A4000050272B3206850E8050F216840F00100DC
:101A500041E805022AB3206850E8050F216840F0EC
:101A6000010041E80502002ADAD11AE0206850E8B6
:101A7000050F216840F0400041E80502DAB1206816
:101A800050E8050F216840F0400041E8050292B19E
:101A9000206850E8050F216840F0400041E8050249
:101AA0004AB1206850E8050F216840F0400041E845
:101AB0000502002ADAD1206B01282FD100200090E6
:101AC000206801680091406800900098206850E804
:101AD000030F216840F0100041E80302DAB12068EA
:101AE00050E8030F216840F0100041E8030292B172
:101AF000206850E8030F216840F0100041E803021D
:101B00004AB1206850E8030F216840F0100041E816
:101B10000302002ADAD1002002B070BD012002B019
:101B200070BD0000B0B540F6A411C2F200018842B9
:101B300040F21800C2F200000AD000F10C0140F699
:101B4000A410C2F200001422BDE8B040FFF704BFA9
:101B50004178042918D0032901D00229EDD190F849
:101B600012C0C37C027D634490F815E01A44837D63
:101B7000C17D724419448A42DFD1BEF1000F1CD1ED
:101B800001210170D9E700BF817CC37C027D90F800
:101B900015C019440A4490F816E06244C37D7244AB
:101BA000017E1A441144427E847EC57E11442A1966
:101BB0009142C2D1BCF1000F02D000210170BCE7FC
:101BC0000121017003EB0E018170B6E77047000040
:101BD000B0B582B0044600680168C368426901F08C
:101BE0002F05202D03F0200506D12DB1204602B08F
:101BF000BDE8B04001F00CB95FEA017C1EBF02F005
:101C0000010E03F4907212EB0E0243D1226BCD064B
:101C100018D5012A16D113F0100213D0002101911A
:101C200001680191416801910199406940063BD4E6
:101C3000A08DE18DE28D002A18BF884240F0F2812C
:101C400002B0B0BD0A0640F1E78013F0800200F058
:101C5000E38094F841102129F2D1A168B1F5805FA9
:101C600003D12169002900F06382216A4A1C2262A3
:101C700009784160E18C01390A04E184E0D1C1684E
:101C800021F08001C160C16841F04001C16002B033
:101C9000B0BD00BFCA0718BF13F4807240F0D080F7
:101CA0004A0700F1D380D8E0E06B016849688AB246
:101CB000002AC5D0A38D9A42C2D2E185806920282E
:101CC00000F09E80206850E8030F216820F48070A7
:101CD00041E80302DAB1206850E8030F216820F4DC
:101CE000807041E8030292B1206850E8030F216838
:101CF00020F4807041E803024AB1206850E8030FE5
:101D0000216820F4807041E80302002ADAD12068BB
:101D100050E8050F216820F0010041E80502C2B338
:101D2000206850E8050F216820F0010041E8050215
:101D30007AB3206850E8050F216820F0010041E8DF
:101D4000050232B3206850E8050F216820F0010039
:101D500041E80502002ADAD11BE000BF206850E804
:101D6000050F216820F0400041E80502DAB1206843
:101D700050E8050F216820F0400041E8050292B1CB
:101D8000206850E8050F216820F0400041E8050276
:101D90004AB1206850E8050F216820F0400041E872
:101DA0000502002ADAD1202084F8420000202063B6
:101DB000206850E8030F216820F0100041E803027A
:101DC000DAB1206850E8030F216820F0100041E8E4
:101DD000030292B1206850E8030F216820F0100040
:101DE00041E803024AB1206850E8030F216820F05F
:101DF000100041E80302002ADAD1E06BFEF76EFA28
:101E000002206063A08DE18D401A81B2204602B0AD
:101E1000BDE8B040FFF786BE49067FF511AF13F06D
:101E200040013FF40DAFC16821F04001C1602021A5
:101E3000204684F8411002B0BDE8B04000F042BC3A
:101E4000626C42F0010262644A0706D5BEF1000FDF
:101E500003D0626C42F0020262648A0706D5BEF1CA
:101E6000000F03D0626C42F004026264BCF1000F08
:101E700006D55EEA050203D0626C42F00802626495
:101E8000626C002A3FF4DCAE890604D51DB1204601
:101E900000F0BEFF20684069616C00F0400001F076
:101EA0000801401800F0B680206850E8030F216850
:101EB00020F4907041E80302BAB3206850E8030FA1
:101EC000216820F4907041E8030272B3206850E862
:101ED000030F216820F4907041E803022AB32068C0
:101EE00050E8030F216820F4907041E80302002AB3
:101EF000DAD11AE0206850E8050F216820F00100CF
:101F000041E80502DAB1206850E8050F216820F0A9
:101F1000010041E8050292B1206850E8050F2168F0
:101F200020F0010041E805024AB1206850E8050FA1
:101F3000216820F0010041E80502002ADAD1206B77
:101F4000012824D1206850E8030F216820F01000F8
:101F500041E80302DAB1206850E8030F216820F05D
:101F6000100041E8030292B1206850E8030F216895
:101F700020F0100041E803024AB1206850E8030F46
:101F8000216820F0100041E80302002ADAD1202065
:101F900084F842000020206320684069400640F138
:101FA000C180206850E8050F216820F0400041E81A
:101FB0000502DAB1206850E8050F216820F04000E2
:101FC00041E8050292B1206850E8050F216820F031
:101FD000400041E805024AB1206850E8050F216839
:101FE00020F0400041E80502002ADAD1E06B002829
:101FF00000F0988042F65921C0F600014163FEF7D7
:1020000091F900283FF41CAEE06B416B02B0BDE8D3
:10201000B04008472046FFF7D9FD0020606402B0B9
:10202000B0BD00BF401A00BF216851E8031F2268FD
:1020300021F4907142E80313BBB3216851E8031FF8
:10204000226821F4907142E8031373B3216851E8C8
:10205000031F226821F4907142E803132BB3216817
:1020600051E8031F226821F4907142E80313002B0A
:10207000DAD11AE0216851E8051F226821F0010138
:1020800042E80513DBB1216851E8051F226821F001
:10209000010142E8051393B1216851E8051F226848
:1020A00021F0010142E805134BB1216851E8051FF9
:1020B000226821F0010142E80513002BDAD120212A
:1020C00084F8421000212163216851E8031F22682F
:1020D00021F0100142E80313DBB1216851E8031F2E
:1020E000226821F0100142E8031393B1216851E8FE
:1020F000031F226821F0100142E803134BB121684D
:1021000051E8031F226821F0100142E80313002B5D
:10211000DAD1022281B22046626302B0BDE8B0404B
:10212000FFF700BD204602B0BDE8B040FFF74EBD4E
:10213000216A31F8022B6FF35F224260216299E538
:10214000002804BF0120704710B5044690F84100F4
:1021500028B9002084F84000204600F063F82420CD
:1021600084F841002068D4E90212C36823F40053C4
:10217000C360036923F440531A430261D4E9042382
:102180001143C268194341F20C639A431143C16081
:102190004169A26921F44071114343F60002C4F27F
:1021A00001029042416103D0FEF764FE02E000BFED
:1021B000FEF774FED4E90023192148439900B0FBCF
:1021C000F1F048F21F5CC5F2EB1CA0FB0C314FF69E
:1021D0009C734909C0F6FF7301FB0300322303EB34
:1021E0000010A0FB0C03F02000EA531000EB0110DC
:1021F000C3F34311084490601069202120F49040FB
:102200001061506920F02A005061D06840F40050FD
:10221000D0600020606484F8411084F8421060634C
:1022200010BD00002DE9F04186B00446006844F27C
:102230000041C4F20001002788420597CDE90377E9
:10224000029739D043F60001C4F20101884240F000
:10225000998041F21800C4F20200016840F60004BF
:1022600041F4804101600168C4F2010401F480413D
:1022700001910199016802AD41F00401016000681B
:10228000294600F00400019001984FF4007002907C
:1022900002200390032005902046FEF701FA4FF438
:1022A000806002900020CDE9030020462946FEF719
:1022B000F7F906B0BDE8F08141F21800C4F202005F
:1022C000416840F6000541F4003141604168C4F2C4
:1022D000010501F4003101910199016802AE41F05C
:1022E00004010160006840F26C0800F004000190F5
:1022F00001980420029002200390032005902846B4
:102300003146C4F20208FEF7CBF90820CDE90207F6
:10231000284631460497FEF7C3F940F2F075C2F241
:10232000000580262846C5E90087C5E90276C5E98B
:102330000477C5E90677FEF71FF9002818BFFDF7F7
:102340003DFFE5636C6240F6340508F11400C2F20B
:1023500000051021002285E847002846C5E904222F
:10236000C5E90622FEF708F9002818BFFDF726FF89
:10237000262005210022A5636C62FEF73BFC262087
:10238000FEF726FC06B0BDE8F081000070470000B3
:10239000704700002DE9F04381B0044690F84100F9
:1023A000202840F0B180884600294FF0010000F05D
:1023B000D6801646002A00F0D280002060642120DA
:1023C0001D4684F84100FEF773FAA684E684A168EE
:1023D0000646B1F5805F03D12069002800F098809F
:1023E00047464FF00008E18C2068002900F09680F5
:1023F00005F101090BE000BF47B317F8011B41606D
:10240000E18C0139E184E18C002900F087800168CA
:102410000906F1D4B9F1000F0AD0EDB1FEF748FA80
:10242000801BA84218D8206801680906F6D5E3E7A2
:1024300001680906E0D4016809065CBF01685FEA2B
:102440000161D9D401680906F2D5D5E738F8021B35
:1024500000276FF35F21D2E7206850E8030F21685F
:1024600020F4D07041E80302BAB3206850E8030FAB
:10247000216820F4D07041E8030272B3206850E86C
:10248000030F216820F4D07041E803022AB32068CA
:1024900050E8030F216820F4D07041E80302002ABD
:1024A000DAD11AE0206850E8050F216820F0010019
:1024B00041E80502DAB1206850E8050F216820F0F4
:1024C000010041E8050292B1206850E8050F21683B
:1024D00020F0010041E805024AB1206850E8050FEC
:1024E000216820F0010041E80502002ADAD120200D
:1024F00084F8410084F84200002084F84000032062
:1025000001B0BDE8F08300BF022001B0BDE8F08358
:102510000027E18C206800297FF46AAF0168490632
:1025200019D4FDB1691C0DD10168490613D40168A5
:1025300049065CBF01685FEA41610CD40168490645
:10254000F2D508E0FEF7B4F9801BA8420AD820684B
:1025500000684006F6D5202084F84100002001B034
:10256000BDE8F083206850E8030F216820F4D070A4
:1025700041E80302002A3ED0206850E8030F21689A
:1025800020F4D07041E80302AAB3206850E8030F9A
:10259000216820F4D07041E8030262B3206850E85B
:1025A000030F216820F4D07041E80302002AD9D13A
:1025B00021E000BF206850E8050F216820F00100ED
:1025C00041E80502002A3FF492AF206850E8050F69
:1025D000216820F0010041E80502002A3FF487AF9E
:1025E000206850E8050F216820F0010041E805024D
:1025F000002A3FF47CAF206850E8050F216820F0E6
:10260000010041E80502002AD4D170E770B5044604
:1026100090F8410020281CBF022070BD00294FF017
:1026200001004DD0002A134608BF70BD4FF0000CCA
:1026300021202162A384E384C4F844C084F84100CB
:102640002268A06B42F6595E42F6096542F665269D
:10265000C0F6000EC0F60005C0F600060432C0E960
:102660000AE5C0E90C6CFDF7CBFF20686FF0400174
:10267000016000BF206850E8050F216840F080002D
:1026800041E80502DAB1206850E8050F216840F002
:10269000800041E8050292B1206850E8050F2168EA
:1026A00040F0800041E805024AB1206850E8050F7B
:1026B000216840F0800041E80502002ADAD10020BC
:1026C00070BD00007047000070470000FEE700008A
:1026D00080B582B041F21400C4F202000168002209
:1026E00041F0010101600068052100F00100019046
:1026F00001981020FEF77EFA1020FEF769FA1120EB
:1027000005210022FEF776FA112002B0BDE88040D4
:10271000FEF75EBA80B582B042F6152044F67472B8
:10272000C0F60000C0F60002002100F0B3FC40F249
:102730001801C2F20001886040F2C91001F1040CD6
:102740004FF0180EC0F6000004A14FF48072002371
:10275000CDE900EC02F06EF902B080BD46696E670B
:1027600065727072696E745265636F676E697469C1
:102770006F6E000070B586B0002641F21800059615
:10278000C4F20200016840F6000441F0100101604B
:102790000168C4F2010401F010010191019901687E
:1027A00002AD41F020010160016801F020010191BA
:1027B0000199016841F004010160016801F0040120
:1027C00001910199016841F0080101600068294602
:1027D00000F00800019001984FF40040CDE9020696
:1027E00004F500600496FDF75BFF0320CDE90206C7
:1027F000204629460496FDF753FF06B070BD000041
:1028000080B540F6780045F20041C2F20000C4F203
:10281000000141F6802200234FF4804CC0F20602F2
:1028200080E80E00C0E9033CC0E90533C0E9073386
:10283000FEF744F8002808BF80BDBDE88040FDF7E2
:10284000BDBC0000B0B590B040F2004540F6141099
:10285000C4F200050021C2F200004FF6FF72CDE97C
:102860000811CDE90611CDE90411C0E90051C0E914
:10287000021201618161FEF7D5FF002818BFFDF744
:102880009DFC40F61410C2F2000008A9FEF71EFDE0
:10289000002818BFFDF792FC602001900020CDE9D0
:1028A0000200059040F61410C2F2000001A90022B7
:1028B000FEF7B8FE002818BFFDF780FC40F61414A0
:1028C000C2F2000401A920460422FEF7ABFE002854
:1028D00018BFFDF773FC20680021A8420E9101D0BB
:1028E00010B0B0BD41F21800C4F20200016841F01E
:1028F0000401016000680CA900F004000B900B9823
:10290000C0200C9002200D900F9005F58230FDF74D
:10291000C7FE10B0B0BD000080B540F65C1043F6B5
:102920000001C2F20000C4F2010100234FF00C0CC0
:102930004FF4E13280E80E00C0E90333C0E905C37B
:10294000C361FFF7FDFB002808BF80BDBDE88040E4
:10295000FDF734BC80B540F6A41044F20041C2F249
:102960000000C4F2000100234FF00C0C4FF4E132E0
:1029700080E80E00C0E90333C0E905C3C361FFF777
:10298000DFFB002808BF80BDBDE88040FDF716BC16
:10299000FEE70000FEE7000000000000000000006D
:1029A000EFF30980BFF36F8F0D4B1A6820E9F00F2A
:1029B00010602DE908404FF0500080F3118801F0BD
:1029C0000BFC4FF0000080F31188BDE80840196847
:1029D0000868B0E8F00F80F30988BFF36F8F704785
:1029E000380000200000000000000000000000008F
:1029F000074B19680868B0E8F00F80F30988BFF347
:102A00006F8F4FF0000080F311884EF00D0E70476D
:102A100038000020FEE7000080B54FF0500080F342
:102A20001188BFF36F8FBFF34F8F02F083F830B17F
:102A30004EF60450CEF200004FF0805101600020AD
:102A400080F3118880BD00007047000040F6CC0084
:102A5000C2F20000FEF72CBD406A0021C185C1848E
:102A6000FFF7B4B8406A01684A6990F84130212BF9
:102A70002DD112F080022AD00021C184016851E8D2
:102A8000031F026821F0C00142E80313DBB10168B3
:102A900051E8031F026821F0C00142E8031393B11B
:102AA000016851E8031F026821F0C00142E80313E6
:102AB0004BB1016851E8031F026821F0C00142E8F0
:102AC0000313002BDAD1202180F8411001684969F5
:102AD00090F84220222A40F07D8011F0400179D008
:102AE0000021C185016851E8031F026821F490713B
:102AF00042E80313BBB3016851E8031F026821F4E5
:102B0000907142E8031373B3016851E8031F026830
:102B100021F4907142E803132BB3016851E8031FBD
:102B2000026821F4907142E80313002BDAD11AE015
:102B3000016851E8051F026821F0010142E8051310
:102B4000DBB1016851E8051F026821F0010142E88C
:102B5000051393B1016851E8051F026821F00101D6
:102B600042E805134BB1016851E8051F026821F0E6
:102B7000010142E80513002BDAD1016B012924D1B0
:102B8000016851E8031F026821F0100142E80313B5
:102B9000DBB1016851E8031F026821F0100142E82F
:102BA000031393B1016851E8031F026821F010017B
:102BB00042E803134BB1016851E8031F026821F09A
:102BC000100142E80313002BDAD1202180F84210D3
:102BD00000210163416C41F010014164FEF7F6BF32
:102BE0000168406A0968890600F19F800021C1855B
:102BF000016851E8031F026821F4807142E8031361
:102C0000E3B1016851E8031F026821F4807142E8D2
:102C100003139BB1016851E8031F026821F480711E
:102C200042E8031353B1016851E8031F026821F41D
:102C3000807142E80313002BDAD100BF016851E82C
:102C4000051F026821F0010142E80513BBB30168CA
:102C500051E8051F026821F0010142E8051373B332
:102C6000016851E8051F026821F0010142E80513DF
:102C70002BB3016851E8051F026821F0010142E809
:102C80000513002BDAD11AE0016851E8051F02682C
:102C900021F0400142E80513DBB1016851E8051F4E
:102CA000026821F0400142E8051393B1016851E840
:102CB000051F026821F0400142E805134BB101688D
:102CC00051E8051F026821F0400142E80513002B7E
:102CD000DAD1202180F84210016B012925D100BFF3
:102CE000016851E8031F026821F0100142E8031354
:102CF000DBB1016851E8031F026821F0100142E8CE
:102D0000031393B1016851E8031F026821F0100119
:102D100042E803134BB1016851E8031F026821F038
:102D2000100142E80313002BDAD100214163016B4B
:102D3000012918BFFFF72ABB818DFEF7F3BE000003
:102D4000406A01214163016B012918BFFFF720BBD5
:102D5000818D4908FEF7E6BE0168406A0968890668
:102D600048BFFFF7AFBC0021C18400BF016851E834
:102D7000051F026821F0800142E8051383B3016852
:102D800051E8051F026821F0800142E805133BB3BA
:102D9000016851E8051F026821F0800142E805132F
:102DA000F3B1016851E8051F026821F0800142E893
:102DB0000513002BDAD113E0016851E8031F026804
:102DC00041F0400142E80313002B08BF704701683F
:102DD00051E8031F026841F0400142E8031393B138
:102DE000016851E8031F026841F0400142E8031303
:102DF0004BB1016851E8031F026841F0400142E80D
:102E00000313002BD8D17047406AFFF75DBC000068
:102E100081B090F84210222921D183680246B3F58F
:102E2000805F09D152F8281F52F8183C002B63D05C
:102E300003685B680AE000BF52F8281F13B90369F2
:102E4000002BF5D003685B6803F07F030B701168FB
:102E500001311160C18D01390A04C18502D001B070
:102E6000704700BF0168CA6822F02002CA60CA68C1
:102E700022F48072CA604A6922F001024A6120216C
:102E800080F8421000214163026B012A3CD10163AA
:102E9000016851E8031F026821F0100142E80313A2
:102EA000DBB1016851E8031F026821F0100142E81C
:102EB000031393B1016851E8031F026821F0100168
:102EC00042E803134BB1016851E8031F026821F087
:102ED000100142E80313002BDAD101680A68D20618
:102EE00006D5002200920A68009249680091009974
:102EF000818D01B0FEF716BE026852686FF35F2243
:102F000021F8022B8162A5E701B0FFF73FBA00006C
:102F100040F6A410C2F20000FEF75ABEFEE7000021
:102F200080B582B0019040F65C10C2F2000001A9A9
:102F300001224FF6FF73FFF72DFA019802B080BD12
:102F400090B0FDF7ADFD00240120CDE90B44CDE9A3
:102F5000094406900A904FF4E0104FF480310225A6
:102F60000F9006A8CDE90714CDE90D51FDF7AAFF92
:102F700020B1EFF3108072B6FEE700BF0F20CDE95D
:102F800001054FF48060CDE9040401A802210394F7
:102F9000FDF76CFE20B1EFF3108072B6FEE700BFC4
:102FA000FFF7E8FBFFF794FBFFF74CFCFFF7B4FCDF
:102FB000FFF7D0FCFFF724FC05A001F08BFF00F029
:102FC00029F8FFF7A7FB00F043F800BFFEE700BFBA
:102FD0007265616479000000EFF3058111B9EFF3C8
:102FE000108119B16FF00500704700BF40F29031B9
:102FF000C2F200010968022903D1EFF3118100290F
:10300000F0D1002804BF0020704780B500F09CFF7D
:10301000002080BDEFF3058010B9EFF3108018B1E8
:103020006FF00500704700BF40F29030C2F2000020
:103030000168022904D1EFF311810029F0D1016860
:10304000002911BF4FF0FF300121016000207047BF
:10305000EFF3058010B9EFF3108018B16FF00500A1
:10306000704700BF40F29030C2F2000001680229B0
:1030700004D1EFF311810029F0D1016801291CBFAF
:103080004FF0FF30704780B50221016001F026F853
:10309000002080BD2DE9F04186B000240B46049449
:1030A000EFF3058121B1204606B0BDE8F08100BFF5
:1030B000EFF310810029F6D140F29031C2F2000105
:1030C0000968022906D10028EFF31181EBD019B16C
:1030D000E9E700BF0028E6D00DF117018DF8174091
:1030E00082B31768D2F818E0002F18BF3946BEF136
:1030F000000F08BF4FF0180EBEF1380FD3D8177964
:10310000FF07D0D15769D2E902864FEA970C002F0A
:10311000654608BF8025B8F1000F25D05C2EC2D3CC
:103120001269002A18BF002FBDD0CDE900E2624627
:10313000CDF8088001F0AEFC0446204606B0BDE89C
:10314000F08100BF80254FF0180E04AFAAB2CDE980
:1031500000E701F06FFC0499012808BF0C462046E7
:1031600006B0BDE8F08100BF002E9CD11269002A94
:1031700099D1EAE72DE9F041044600F0A7FD40F2BD
:103180003806C2F20006F06840F6DC250130F06037
:103190003068C2F2000558B13069002840F007815C
:1031A0003068E16AC06A884298BF3460FFE000BFBF
:1031B0003460F068012840F0FA80284600F036FDBF
:1031C00005F1140000F032FD05F1280000F02EFD9D
:1031D00005F13C0000F02AFD05F1500000F026FD4D
:1031E00005F1640000F022FD05F1780000F01EFDFD
:1031F00005F18C0000F01AFD05F1A00000F016FDAD
:1032000005F1B40000F012FD05F1C80000F00EFD5C
:1032100005F1DC0000F00AFD05F1F00000F006FD0C
:1032200005F5827000F002FD05F58C7000F0FEFCE3
:1032300005F5967000F0FAFC05F5A07000F0F6FCBC
:1032400005F5AA7000F0F2FC05F5B47000F0EEFC94
:1032500005F5BE7000F0EAFC05F5C87000F0E6FC6C
:1032600005F5D27000F0E2FC05F5DC7000F0DEFC44
:1032700005F5E67000F0DAFC05F5F07000F0D6FC1C
:1032800005F5FA7000F0D2FC05F5027000F0CEFCF6
:1032900005F5077000F0CAFC05F50C7000F0C6FCDF
:1032A00005F5117000F0C2FC05F5167000F0BEFCCB
:1032B00005F51B7000F0BAFC05F5207000F0B6FCB7
:1032C00005F5257000F0B2FC05F52A7000F0AEFCA3
:1032D00005F52F7000F0AAFC05F5347000F0A6FC8F
:1032E00005F5397000F0A2FC05F53E7000F09EFC7B
:1032F00005F5437000F09AFC05F5487000F096FC67
:1033000005F54D7000F092FC05F5527000F08EFC52
:1033100005F5577000F08AFC05F55C7000F086FC3E
:1033200005F5617000F082FC05F5667000F07EFC2A
:1033300005F56B7000F07AFC05F5707000F076FC16
:1033400005F5757000F072FC05F57A7000F06EFC02
:1033500005F57F7000F06AFC05F5826000F066FC00
:1033600005F2244000F062FC05F5876000F05EFC89
:1033700005F24C4000F05AFC40F20C18C2F2000872
:10338000404600F053FC08F11407384600F04EFCAC
:1033900006F1640000F04AFC06F13C0000F046FC37
:1033A00006F1500000F042FCC6F81C8037627068DD
:1033B000716A421CE06A72608842626488BF70620F
:1033C00000EB800005EB8000211D00F071FC00F097
:1033D000A1FC306988B13068E16AC06A884228BFC0
:1033E000BDE8F0814EF60450CEF200004FF080515F
:1033F0000160BFF34F8FBFF36F8FBDE8F081000016
:1034000040F2380540F6DC264EF60458C2F20005BC
:10341000C2F20006CEF200084FF0805703E000BF72
:10342000204600F08FFCA868D0B100F04FFCA86CDB
:10343000C468201D00F0CCFBE8680138E860A8688B
:103440000138A86000F066FC94F859000228EAD020
:103450000128E5D070B9206B00F074FCE0E700BFF4
:1034600030680228DFD3C8F80070BFF34F8FBFF376
:103470006F8FD8E74FF0500080F31188BFF36F8F44
:10348000BFF34F8FFEE700002DE9F0470A9C82460C
:10349000206B16460F46DDE908599100A522984693
:1034A000FCF752FE3978206B84F8341000EB86006C
:1034B00039780438002920F007064BD0787884F852
:1034C00035007878002845D0B87884F83600B87888
:1034D00000283FD0F87884F83700F878D0B33879EE
:1034E00084F838003879A8B3787984F83900787985
:1034F00080B3B87984F83A00B87958B3F87984F889
:103500003B00F87930B3387A84F83C00387A08B355
:10351000787A84F83D00787AE0B1B87A84F83E0091
:10352000B87AB8B1F87A84F83F00F87A90B1387B6D
:1035300084F84000387B68B1787B84F84100787B60
:1035400040B1B87B84F84200B87B00281CBFF87BF0
:1035500084F843000027201D84F84370372D28BFCE
:103560003725E562C4E9135700F06CFB04F118003D
:1035700000F068FBC5F13800A06130465146424674
:1035800024616462676584F8587000F011FBB9F13A
:10359000000F206018BFC9F80040BDE8F0870000A8
:1035A00006480068006880F3088862B661B6BFF319
:1035B0004F8FBFF36F8F00DF00BF000008ED00E00A
:1035C00081B00020009040F21000C2F200000068BC
:1035D0004FF0500181F31188BFF36F8FBFF34F8F0E
:1035E000013007D0FEE700BF009830B9009820B93D
:1035F000009810B900980028F6D001B0704700007C
:1036000088B040F2B00AC2F2000A4FF0000B0DF190
:103610001009E846DAF8080005681DB1C0680468BA
:1036200001E000BF002400F0CFFD01F07DFADAF8E0
:1036300010100646884224D3002DCAF8106053D0DB
:10364000A64251D301F074FBDAF80800C068C768DD
:103650003D1D284600F0BCFAF869012840F0808042
:10366000B8693F610119B14279605BD90AF108007C
:103670005DE000BF6860DAF8080039462D6100F0AF
:10368000E5FADAF80800016821B3C068C568046883
:103690002F1D384600F09CFA696A28468847E86979
:1036A0000128EED1A8692044A042E3D8DAF800004E
:1036B000002800F02581CDE904B4069501F024FA34
:1036C000DAF8000049460022002300F0E9FE002855
:1036D000D7D115E1DAF80C10CAF81060CAE9021067
:1036E00001F026FB46E000BF15B1002206E000BF56
:1036F000DAF80C000068B0FA80F04209DAF800004D
:10370000A11B00F0F7FB01F013FB98BB4EF6045031
:10371000CEF200004FF080510160BFF34F8FBFF336
:103720006F8F27E0311B814206D20AF10C0000683E
:10373000294600F08BFA13E0DAF80000002800F0C8
:10374000FD80CDE904B4069701F0DEF9DAF8000057
:1037500049460022002300F0A3FE002800F0EE807E
:10376000796A3846884705E00AF10C00006800F0E5
:103770006DFA00BFDAF800004146002200F0EEFFCB
:1037800000283FF447AF0098B0F1FF3F06DCDDE9C9
:1037900001200399904700980028EBD4029E70699D
:1037A00010B1301D00F014FA01F0BEF9DAF8101073
:1037B000074688420DD30098CAF8107009283BD9F3
:1037C000D8E700BF6860DAF8080021462D6100F0F4
:1037D0003DFADAF80800016821B3C068C568D0F87E
:1037E00000802C1D204600F0F3F9696A28468847BE
:1037F000E8690128EDD1A86940444045E2D8DAF8EB
:103800000000002872D0CDE904B8069501F07CF9DB
:10381000DAF8000049460022002300F041FE0028AB
:10382000D7D163E0DAF80C10E846CAE90210009834
:10383000CAF8107009289DD80121814011F0C70FE6
:1038400010D0019AB0693146831841F8043FBB4259
:1038500036611DD997420AF10800BFF487AF934241
:103860001AD283E711F4047F34D001980028B061A4
:103870005AD0384431460AF10C0241F8040F36613F
:10388000B84288BF0AF10802106800F0DFF971E75A
:10389000BA1A8242FFF468AF716A30468847F0690D
:1038A00001287FF467AFDAF80000002832D00198D1
:1038B000B16906960844CDE904B001F025F9DAF8BB
:1038C000000049460022002300F0EAFD00287FF4B2
:1038D00051AF1FE005287FF44DAF96F82C0000286B
:1038E0007FF448AF304600F02DFA43E74FF0500028
:1038F00080F31188BFF36F8FBFF34F8FFEE700BFD8
:103900004FF0500080F31188BFF36F8FBFF34F8FDC
:10391000FEE700BF4FF0500080F31188BFF36F8FB8
:10392000BFF34F8FFEE700BF4FF0500080F31188C8
:10393000BFF36F8FBFF34F8FFEE700BF4FF0500014
:1039400080F31188BFF36F8FBFF34F8FFEE7000046
:10395000F0B581B0044600F0B9F994F94560012E44
:103960000FDB04F1240500BF286850B1284601F0A0
:10397000A5F9002818BF00F031FBF0B2013E012884
:10398000F2D8FF2684F8456000F0C4F900F09EF9F3
:1039900094F94470012F0EDB04F11005286850B132
:1039A000284601F08BF9002818BF00F017FBF8B289
:1039B000013F0128F2D884F8446001B0BDE8F0402E
:1039C00000F0A8B970B5044600F0FEFB40F2EC0C24
:1039D000C2F2000CDCF8040050B19CF80000002892
:1039E00018BF4FF000404FF0000554BB85E000BF0A
:1039F00040F63C70C2F20000420700F5406200F160
:103A0000070122F0070218BF21F007000021A2F1F0
:103A10000803CCF81000CCF81410CCF8043042E9BC
:103A20000211DCF80420191AC0E9002101208CF8E9
:103A300000004FF00040CCE90211002C4FF00005CF
:103A40005BD0204059D124F0070000F1100260073C
:103A500008BF04F10802DCF80800511E81424CD274
:103A6000604650F810EFDEF8045095422BD2DEF895
:103A70000010B9B174464D68954217D20B68ABB1CE
:103A80005D68954216D21868A0B14568954215D276
:103A900004689CB16568954214D22168A646002945
:103AA000E9D110E00CF110000DE000BF8E46204679
:103AB00009E000BF9E46084605E000BF864618465E
:103AC00001E000BFA646DCF804108E4514D0016862
:103AD000DEF80040AB1A112B04604CD30EEB02054C
:103AE000680719D04FF0500080F31188BFF36F8F33
:103AF000BFF34F8FFEE700BF002501F019F96807FB
:103B000054D04FF0500080F31188BFF36F8FBFF394
:103B10004F8F00BFFEE700BF0CF110006B60CEF8C6
:103B2000042000BF0368AB420AD21868A8420BD237
:103B30000368AB4204D218681A46A842F2D304E0E4
:103B40000246184601E000BF1A4654686B68161911
:103B5000AE4202D1234415465360EC18844206D18C
:103B6000DCF80440A04202D011C823446B60AA4292
:103B7000286018BF1560DEF80400DCE9022301F1BB
:103B80000805111A9942CCF8081038BFCCF80C106F
:103B90009CF8001000294FF0000118BF40F00040D1
:103BA000CEE9001001F0C4F86807AAD1284670BD1C
:103BB000034643F2C150C0F600004FF0807C21F074
:103BC000010103E90310A3F1400043F8202C7047E2
:103BD000D0E9013201699A60D1F804C08268844555
:103BE000536008BF4A60002202610868013808601B
:103BF0000868704740F23433C2F20003036040F2B9
:103C00003410C2F20000086080201060704700008D
:103C100040F29473C2F20003036040F29430C2F2A7
:103C2000000008604FF48070106070474FF0FF3163
:103C3000024642F8081F00214260C0E903220160E9
:103C400070470000002101617047000010B5D1F8F5
:103C500000E01EF1010213D000F10804626813684D
:103C6000734511D853681C68744511D85A68146894
:103C700074450FD854682368A4467345EED90BE009
:103C80000269D2F804C007E09446224604E000BF6F
:103C90009C4601E094461A46C1F804C0CCF80810CE
:103CA0008A605160086101680131016010BD000047
:103CB000D0F800C0436808619A684B608A609A68CF
:103CC000996051600CF10101016070474FF05000A4
:103CD00080F31188BFF36F8FBFF34F8F40F2100056
:103CE000C2F2000001684A1C026009B1704700BFBF
:103CF0004EF60450CEF200000068000608BF704780
:103D00004FF0500080F31188BFF36F8FBFF34F8FD8
:103D1000FEE7000040F21000C2F20000016839B175
:103D20000139016018BF7047002080F31188704787
:103D30004FF0500080F31188BFF36F8FBFF34F8FA8
:103D4000FEE7000070B5002808BF70BD40F2EC0629
:103D5000C2F200060446307854F8041C002818BF4C
:103D60004FF0004008420DD0A4F108052A689AB12E
:103D70004FF0500080F31188BFF36F8FBFF34F8F68
:103D8000FEE700BF4FF0500080F31188BFF36F8F44
:103D9000BFF34F8FFEE700BF21EA000044F8040C98
:103DA00000F012FA54F8041CB0680844B06006F140
:103DB000100000BF0368AB420AD21868A84221D2A3
:103DC0000368AB4204D218681A46A842F2D301E055
:103DD000024618465368D418AC4202D1194415461D
:103DE00051606B18834205D17368984202D009C8AC
:103DF00019446960AA42286018BF1560BDE8704088
:103E000000F096BF1A465368D418AC42E9D1E5E7F2
:103E10004EF21000CEF2000000210160816040F2FD
:103E20000C01C2F20001096844F6D352C1F26202E9
:103E3000A1FB02124FF0FF3101EB9211416007210B
:103E40000160704741F6403CC2F2000CDCF80020F3
:103E500022B3634653F8082F42B3634653F8102F3A
:103E600052B3634653F8182F62B3634653F8202FBA
:103E700072B3634653F8282F82B3634653F8302F4A
:103E800092B3634653F8382F002A18BF70470722B1
:103E900019600CEBC2014860704700BF0022634606
:103EA00019600CEBC2014860704700BF0122196025
:103EB0000CEBC20148607047022219600CEBC20192
:103EC00048607047032219600CEBC20148607047DC
:103ED000042219600CEBC20148607047052219608A
:103EE0000CEBC20148607047062219600CEBC2015E
:103EF0004860704770B515460E460446FFF7E6FE6B
:103F000094F84400FF2804BF002084F8440094F88B
:103F10004500FF2804BF002084F84500FFF7FAFEA3
:103F2000A06B28B12046BDE87040FFF711BD00BF6F
:103F300004F1240031462A4600F092F82046BDE8FC
:103F40007040FFF705BD000070B588B340F238053A
:103F5000C2F200050446686950B14FF0500080F38A
:103F60001188BFF36F8FBFF34F8F00BFFEE700BF15
:103F7000686901306861AE6928680430FFF728FE7F
:103F80002868A419446005D3286A29680431FFF71A
:103F90005DFE08E0E86929680431FFF757FEE86A2A
:103FA000844238BFEC6200F0C3FE002818BF70BD29
:103FB0004EF60450CEF200004FF080510160BFF386
:103FC0004F8FBFF36F8F70BD40F23801C2F2000116
:103FD0008A6B0260896941607047000040F23800D6
:103FE000C2F20000012101637047000070B5D8B132
:103FF00040F23804C2F200040D4621681831FFF780
:1040000025FEA66920680430FFF7E2FD681C15D084
:104010002068AD19456019D3206A21680431BDE8D4
:104020007040FFF713BE00BF4FF0500080F31188BF
:10403000BFF36F8FBFF34F8FFEE700BF54F8500BF5
:10404000011D2046BDE87040FFF732BEE0692168DF
:104050000431FFF7FBFDE06A854238BFE56270BDC1
:10406000F0B581B0C0B140F23804C2F200040D4690
:10407000216816461831FFF71BFEA7692068043037
:10408000FFF7A6FD96B154F8500B011D204601B074
:10409000BDE8F040FFF70CBE4FF0500080F31188F0
:1040A000BFF36F8FBFF34F8FFEE700BF2068ED199E
:1040B000456007D3206A2168043101B0BDE8F040B3
:1040C000FFF7C4BDE06921680431FFF7BFFDE06A76
:1040D000854238BFE56201B0F0BD000010B588B080
:1040E0000020CDE9050006A805A904AAFFF782FD76
:1040F000059800283CD0069C002C43D05C21049AF3
:10410000079107995C2947D12063022084F8590060
:1041100007A80021CDE9001043F20140C0F60000DD
:1041200027A100230294FFF7AFF92046FFF722F8FA
:10413000079840F23804C2F20004A062B0B100F067
:104140006FFE411C32D0012810D14FF0500080F397
:104150001188BFF36F8FBFF34F8F4FF0FF30E062D6
:10416000012020610020A06100F094F808B010BD8B
:104170004FF0500080F31188BFF36F8FBFF34F8F64
:10418000FEE700BF4FF0500080F31188BFF36F8F40
:10419000BFF34F8FFEE700BF4FF0500080F3118850
:1041A000BFF36F8FBFF34F8FFEE700BF4FF050009C
:1041B00080F31188BFF36F8FBFF34F8FFEE700BF0F
:1041C00049444C450000000040F23800C2F20000B3
:1041D000416901314161704780B540F2380EC2F249
:1041E000000EDEF8141019B10121CEF8301080BD98
:1041F0000021CEF83010DEF8241040F6DC2C01EB64
:104200008103C2F2000C5CF823208AB101EB810229
:104210000CEB820353F8042F5268181D82421A6077
:1042200020D0D068CEF80000CEF8241080BD00BFAA
:104230000CEB8302A2F12803E1B15A6922BB0129E8
:1042400018D01A6812BB022914D053F8142CFAB9EA
:1042500003290FD053F8282C0439002AA3F1500366
:10426000EAD0D3E752681A60D068CEF80000CEF8E2
:10427000241080BD4FF0500080F31188BFF36F8F82
:10428000BFF34F8FFEE700BF0139BFE70239BDE73B
:104290000339BBE7B0B584B04EF2004CCEF2000C4F
:1042A0009CF800100291FF218CF800109CF800107F
:1042B0008DF807109DF8071001F0500240F204112C
:1042C000C2F200010A7007224A609DF90720B2F18C
:1042D000FF3F61DC032200BFD31C4B609DF8070049
:1042E00040008DF807009DF90700B0F1FF3F24DC86
:1042F000931C4B609DF8070040008DF807009DF966
:104300000700B0F1FF3F18DC531C4B609DF807001D
:1043100040008DF807009DF90700B0F1FF3F0CDC6D
:104320004A609DF80700043A40008DF807009DF9A7
:104330000700B0F1FF3FCFDD131D032B2CD14FF44D
:104340004070486002988CF80000DCF8200940F4C6
:104350007000CCF82009DCF8200940F07040CCF85F
:104360002009FFF755FD40F21004C2F200040025B9
:104370002560FFF715F9FFF72FFF039520684FF031
:10438000500181F31188BFF36F8FBFF34F8F01305E
:1043900012D000BFFEE700BF4FF0500080F311883D
:1043A000BFF36F8FBFF34F8FFEE700BF039830B9A5
:1043B000039820B9039810B903980028F6D000207C
:1043C00004B0B0BD70B582B070B11C46B3B1F9B9DC
:1043D000F2B14FF0500080F31188BFF36F8FBFF33D
:1043E0004F8F00BFFEE700BF4FF0500080F31188F1
:1043F000BFF36F8FBFF34F8FFEE700BF4FF050004A
:1044000080F31188BFF36F8FBFF34F8FFEE700BFBC
:1044100051B14AB94FF0500080F31188BFF36F8F4C
:10442000BFF34F8FFEE700BF50230193019B502B3A
:104430002CD1069E012384F84630002908BF22466D
:104440002260C4E90F01FFF741FC2068D4E90F1294
:10445000002502FB0103013901FB0201A563C4E948
:104460000130FF20E16084F8440084F8450004F145
:104470001000FFF7DBFB04F12400FFF7D7FBFFF789
:1044800049FC204684F84C6002B070BD4FF05000EB
:1044900080F31188BFF36F8FBFF34F8FFEE70000EB
:1044A0002DE9F04F83B00292C0B11D4617460E466B
:1044B0000446E9B1022D02D1E06B01285AD100F087
:1044C00023FB18BB17B34FF0500080F31188BFF3E4
:1044D0006F8FBFF34F8F00BFFEE700BF4FF050005C
:1044E00080F31188BFF36F8FBFF34F8FFEE700BFDC
:1044F000206C0028DED04FF0500080F31188BFF30D
:104500006F8FBFF34F8F00BFFEE700BFFFF7DEFBEB
:10451000A06B022D65D0E16B884262D3029800281F
:1045200000F016816846FFF74FFDFFF7F3FBFFF73A
:104530004BFEFFF7CBFB94F84400FF2804BF00209C
:1045400084F8440094F84500FF2804BF002084F854
:104550004500FFF7DFFB684602A900F01FFA98B19B
:104560002046FFF7F5F900F0E3FB002003B0BDE8BB
:10457000F08F00BF4FF0500080F31188BFF36F8FB2
:10458000BFF34F8FFEE700BF04F11008FFF79EFB5B
:10459000D4F83890E76BFFF7BDFBB94516D1029907
:1045A0004046FFF723FD2046FFF7D2F900F0C0FB9D
:1045B00088B94EF60450CEF200004FF080510160F1
:1045C000BFF34F8FBFF36F8F05E000BF2046FFF7AB
:1045D000BFF900F0ADFBFFF779FBA06BE16B884200
:1045E00064D2A76B226CDAB125B3E0683146FBF7E1
:1045F00099FDE168206C2268091A9142E16003D2BA
:10460000616840420844E060A81EB0FA80F04009AA
:104610003946002F18BF012108403F1A17E000BF9C
:1046200020680025A0B9606800F002FB65600546BF
:104630000EE000BFA0683146FBF774FDD4E901012C
:10464000226C11448142A16001D32068A060002542
:10465000781CA06354F8240FA0B1204600F02EFB74
:1046600050B14EF60450CEF200004FF08051016080
:10467000BFF34F8FBFF36F8FFFF74CFB012003B0E9
:10468000BDE8F08F002DF7D04EF60450CEF20000BA
:104690004FF080510160BFF34F8FBFF36F8FFFF773
:1046A00039FB012003B0BDE8F08F00BFE94602AF3F
:1046B0000CE000BF2046FFF74BF900F039FBFFF795
:1046C00005FBA06BE16B8842FFF48BAF02980028DA
:1046D0003ED0FFF71FFBFFF777FDFFF7F7FA94F8DF
:1046E0004400FF2804BF002084F8440094F84500EB
:1046F000FF2804BF002084F84500FFF70BFB484665
:10470000394600F04BF900287FF42AAFFFF7DEFAB4
:10471000D4F838A0D4F83CB0FFF7FCFADA45C9D198
:1047200002994046FFF762FC2046FFF711F900F0BE
:10473000FFFA0028C3D14EF60450CEF200004FF02D
:1047400080510160BFF34F8FBFF36F8FB7E700BF9A
:10475000FFF7E0FA002003B0BDE8F08F2DE9F04F3D
:1047600083B0029290B116460D460446002947D008
:1047700000F0CAF9A0B99EB14FF0500080F3118843
:10478000BFF36F8FBFF34F8FFEE700BF4FF05000B6
:1047900080F31188BFF36F8FBFF34F8FFEE700BF29
:1047A000FFF794FAD4F838A0BAF1000F36D0226C93
:1047B00052B1E06863688118E160994224BF2168C2
:1047C000E1602846FBF7AEFCAAF10100A06354F8B3
:1047D000100F70B1204600F071FA50B14EF604503F
:1047E000CEF200004FF080510160BFF34F8FBFF356
:1047F0006F8F0124FFF78EFA204603B0BDE8F08FDB
:10480000206C0028B4D04FF0500080F31188BFF323
:104810006F8FBFF34F8F00BFFEE700BF02980028E5
:1048200000F0B4806846FFF7CFFBFFF773FAFFF79D
:10483000CBFCFFF74BFA94F8440004F12408FF285E
:1048400004BF002084F8440094F84500FF2804BF0A
:10485000002084F84500FFF75DFA684602A900F0E1
:104860009DF878B12046FFF773F800F061FAFFF782
:104870002DFAA66BFFF74EFA2EBB0024204603B09C
:10488000BDE8F08FFFF722FAA66BFFF743FA2EB1CF
:104890002046FFF75DF800F04BFA14E0029940461D
:1048A000FFF7A4FB2046FFF753F800F041FA50B998
:1048B0004EF60450CEF200004FF080510160BFF37D
:1048C0004F8FBFF36F8FFFF701FAD4F838A0BAF11A
:1048D000000F7FF46CAF4FF00009EB4602AE13E01F
:1048E0002046FFF735F800F023FAFFF7EFF9A76B42
:1048F000FFF710FA002FC0D0FFF7E8F9D4F838A07E
:10490000BAF1000F7FF453AF029800283ED0FFF7B2
:1049100001FAFFF759FCFFF7D9F994F84400FF2892
:1049200008BF84F8449094F84500FF2808BF84F835
:104930004590FFF7EFF95846314600F02FF8002870
:10494000CED1FFF7C3F9A76BFFF7E4F937B12046E3
:10495000FEF7FEFF00F0ECF9CEE700BF02994046FB
:10496000FFF744FB2046FEF7F3FF00F0E1F90028D3
:10497000C2D14EF60450CEF200004FF080510160DB
:10498000BFF34F8FBFF36F8FB6E700BF0024FFF771
:10499000C1F9204603B0BDE8F08F0000B0B538B3D0
:1049A0000D4679B30446FFF791F940F2380CC2F294
:1049B000000CDCF8182029684B1C2DD0D4E9000E1F
:1049C000DCF83830834201D072452DD2A2EB0E02C2
:1049D000914227D9881A2860DCF838002060DCF87A
:1049E000180060600024FFF795F92046B0BD00BFB5
:1049F0004FF0500080F31188BFF36F8FBFF34F8FDC
:104A0000FEE700BF4FF0500080F31188BFF36F8FB7
:104A1000BFF34F8FFEE700BF0024FFF77BF920466E
:104A2000B0BD00BF002028600124FFF773F92046C5
:104A3000B0BD00002DE9F04383B0074690009846D2
:104A400015468946FEF7BEFFF8B106465C20FEF724
:104A5000B9FFB8B10446DDE90A100022266384F8E4
:104A60005920CDE90010384649462A46434602946B
:104A7000FEF70AFD2046FEF77DFB012003B0BDE8EE
:104A8000F08300BF3046FFF75DF94FF0FF3003B011
:104A9000BDE8F08370B586B00B9CBCB10C9EFEB136
:104AA0005C250495049D5C2D24D10A9D3463022469
:104AB00086F8594005ACCDE900540296FEF7E4FCB7
:104AC0003046FEF757FB059806B070BD4FF050001A
:104AD00080F31188BFF36F8FBFF34F8FFEE700BFE6
:104AE0004FF0500080F31188BFF36F8FBFF34F8FEB
:104AF000FEE700BF4FF0500080F31188BFF36F8FC7
:104B0000BFF34F8FFEE7000040F23800C2F2000012
:104B1000016900290FBF01204069B0FA80F0400907
:104B200018BF40007047000040F23800C2F2000099
:104B3000806970472DE9F04381B040F23806C2F237
:104B40000006706920B1706B00240130706367E06B
:104B5000B06910F10109C6F8189020D3F069006817
:104B600050B14FF0500080F31188BFF36F8FBFF347
:104B70004F8F00BFFEE700BFF069316AF16130621C
:104B8000B06B0130B063F069006828B1F069C068AB
:104B9000C068406802E000BF4FF0FF30F062F06A8A
:104BA00040F6DC288145C2F2000801D200242EE044
:104BB000F0690024006813E0F86A716A884288BFCF
:104BC000706200EB800008EB80002946FFF770F868
:104BD000F86A3168C96AF269884228BF01241068FE
:104BE00090B1F069C068C7683D4655F8040F81452B
:104BF0000CD32846FEF7ECFFB86A0028DCD007F19A
:104C00001800FEF7E5FFD7E74FF0FF30F06230689D
:104C1000C06A00EB800058F82000012888BF0124FA
:104C2000306B002818BF0124204601B0BDE8F08396
:104C300070B588B140F23806C2F20006044630680A
:104C4000A0420BD04FF0500080F31188BFF36F8F5C
:104C5000BFF34F8FFEE700BF002070BD206D18B37B
:104C6000013820654FF0000018BF70BDE16AE26CAA
:104C7000914218D0251D2846FEF7AAFFE06CC0F12E
:104C80003801E062A161716A884240F6DC2188BF88
:104C9000706200EB8000C2F2000101EB8000294647
:104CA000FFF706F8012070BD4FF0500080F3118827
:104CB000BFF36F8FBFF34F8FFEE7000070B5C06882
:104CC000C5686DB105F118042046FEF781FF40F27A
:104CD0003806C2F20006706960B106F164001AE09D
:104CE0004FF0500080F31188BFF36F8FBFF34F8FE9
:104CF000FEE700BF2C1D2046FEF76AFFE86A716AD6
:104D0000884240F6DC2188BF706200EB8000C2F26E
:104D1000000101EB80002146FEF7CAFFE86A316816
:104D2000C96A884292BF00200120306370BD000034
:104D30002DE9F04140F23805C2F20005686968B11A
:104D4000FEF7C4FF686901386861686980B10024B2
:104D5000FEF7E0FF2046BDE8F08100BF4FF05000B5
:104D600080F31188BFF36F8FBFF34F8FFEE700BF53
:104D7000E8680028EBD0686E88B340F6DC26C2F203
:104D800000064FF0010800BF286FC76807F1180040
:104D9000FEF71EFF3C1D2046FEF71AFFF86A696AFF
:104DA000884288BF686200EB800006EB80002146E5
:104DB000FEF77EFFF86A2968C96A884228BFC5F8ED
:104DC0003080686E0028DFD1E869006820B1E869AA
:104DD000C068C068406801E04FF0FF30E8626C6B6B
:104DE0004CB10126FFF7A6FE002818BF2E63013C38
:104DF000F8D100206863286B0028A8D04EF6045034
:104E0000CEF200004FF080510160BFF34F8F0124BC
:104E1000BFF36F8FFEF77EFF2046BDE8F0810000F4
:104E200070B586B0FEF752FF40F2B006C2F200063F
:104E3000306808BB06F114042046FEF7F7FE06F1C1
:104E400028052846FEF7F2FE40F6EC1240F68C23C9
:104E5000C6E902450025C2F20002C2F200030A20A0
:104E600010210095FFF7AEFA306028B144F6A47126
:104E7000C0F60001FEF7E6FFFEF74CFF3068D8B140
:104E80000020CDE9040005A804A903AAFEF7C0FE8E
:104E9000DDE903200221059DCDE9001043F2016008
:104EA000C0F6000009A100230295FFF7F3FD706032
:104EB00010B1012006B070BD4FF0500080F3118892
:104EC000BFF36F8FBFF34F8FFEE700BF546D7220AB
:104ED00053766300014A024900F013B8212F0008FD
:104EE0000000002002E008C8121F08C1002AFAD101
:104EF00070477047002001E001C1121F002AFBD15A
:104F000070472DE9F04116460F460446002503E0A0
:104F10003946B047641C6D1C20780028F8D128461B
:104F2000BDE8F08110B5044601E0FDF7F9FF14F883
:104F3000010B04490028F8D1BDE810400A20FDF714
:104F4000EFBF000000000020000000000000000093
:104F5000010203040607080900000000010203041F
:104F6000010202030405060708090A0B0C0D0E0FC7
:104F700010100000984F0008000000000000000022
:104F80000000000000000000000200001800000007
:104F9000000000000000000064656661756C7454D8
:104FA00061736B00546D725100EF01FFFFFFFF0151
:104FB00000040201000800000000000000EF01FFF3
:104FC000FFFFFF01000301000500000000000000DA
:104FD00000EF01FFFFFFFF010008040100000020B7
:104FE000002E000000000000085000080000002013
:104FF00018000000E44E00082050000818000020AF
:10500000681F0000F44E00080000000001000000CE
:105010001000000000127A00AAAAAAAA000000004C
:04000005080000ED02
:00000001FF
